{
  "_format": "hh-sol-artifact-1",
  "contractName": "FlowRoller",
  "sourceName": "contracts/FlowRoller.sol",
  "abi": [
    {
      "inputs": [
        {
          "internalType": "contract ISuperfluid",
          "name": "host",
          "type": "address"
        },
        {
          "internalType": "contract IConstantFlowAgreementV1",
          "name": "cfa",
          "type": "address"
        },
        {
          "internalType": "contract ISuperToken",
          "name": "superToken",
          "type": "address"
        },
        {
          "internalType": "contract ERC20",
          "name": "outputToken",
          "type": "address"
        },
        {
          "internalType": "contract ILendingPoolAddressesProvider",
          "name": "aaveLendingPoolProvider",
          "type": "address"
        },
        {
          "internalType": "contract IUniswapV2Router02",
          "name": "uniswapRouter",
          "type": "address"
        }
      ],
      "stateMutability": "nonpayable",
      "type": "constructor"
    },
    {
      "inputs": [],
      "name": "_cfa",
      "outputs": [
        {
          "internalType": "contract IConstantFlowAgreementV1",
          "name": "",
          "type": "address"
        }
      ],
      "stateMutability": "view",
      "type": "function"
    },
    {
      "inputs": [],
      "name": "_depositBalance",
      "outputs": [],
      "stateMutability": "nonpayable",
      "type": "function"
    },
    {
      "inputs": [],
      "name": "_outputToken",
      "outputs": [
        {
          "internalType": "contract ERC20",
          "name": "",
          "type": "address"
        }
      ],
      "stateMutability": "view",
      "type": "function"
    },
    {
      "inputs": [],
      "name": "_superToken",
      "outputs": [
        {
          "internalType": "contract ISuperToken",
          "name": "",
          "type": "address"
        }
      ],
      "stateMutability": "view",
      "type": "function"
    },
    {
      "inputs": [
        {
          "internalType": "address",
          "name": "saver",
          "type": "address"
        }
      ],
      "name": "_totalStreamedOf",
      "outputs": [
        {
          "internalType": "uint256",
          "name": "",
          "type": "uint256"
        }
      ],
      "stateMutability": "nonpayable",
      "type": "function"
    },
    {
      "inputs": [],
      "name": "_uniswapRouter",
      "outputs": [
        {
          "internalType": "contract IUniswapV2Router02",
          "name": "",
          "type": "address"
        }
      ],
      "stateMutability": "view",
      "type": "function"
    },
    {
      "inputs": [
        {
          "internalType": "uint256",
          "name": "amount",
          "type": "uint256"
        },
        {
          "internalType": "address",
          "name": "aTokenAddress",
          "type": "address"
        }
      ],
      "name": "_withdraw",
      "outputs": [
        {
          "internalType": "uint256",
          "name": "swapOutputAmount",
          "type": "uint256"
        }
      ],
      "stateMutability": "nonpayable",
      "type": "function"
    },
    {
      "inputs": [
        {
          "internalType": "contract ISuperToken",
          "name": "superToken",
          "type": "address"
        },
        {
          "internalType": "address",
          "name": "agreementClass",
          "type": "address"
        },
        {
          "internalType": "bytes32",
          "name": "agreementId",
          "type": "bytes32"
        },
        {
          "internalType": "bytes",
          "name": "agreementData",
          "type": "bytes"
        },
        {
          "internalType": "bytes",
          "name": "",
          "type": "bytes"
        },
        {
          "internalType": "bytes",
          "name": "ctx",
          "type": "bytes"
        }
      ],
      "name": "afterAgreementCreated",
      "outputs": [
        {
          "internalType": "bytes",
          "name": "newCtx",
          "type": "bytes"
        }
      ],
      "stateMutability": "nonpayable",
      "type": "function"
    },
    {
      "inputs": [
        {
          "internalType": "contract ISuperToken",
          "name": "superToken",
          "type": "address"
        },
        {
          "internalType": "address",
          "name": "agreementClass",
          "type": "address"
        },
        {
          "internalType": "bytes32",
          "name": "agreementId",
          "type": "bytes32"
        },
        {
          "internalType": "bytes",
          "name": "agreementData",
          "type": "bytes"
        },
        {
          "internalType": "bytes",
          "name": "",
          "type": "bytes"
        },
        {
          "internalType": "bytes",
          "name": "ctx",
          "type": "bytes"
        }
      ],
      "name": "afterAgreementTerminated",
      "outputs": [
        {
          "internalType": "bytes",
          "name": "newCtx",
          "type": "bytes"
        }
      ],
      "stateMutability": "nonpayable",
      "type": "function"
    },
    {
      "inputs": [
        {
          "internalType": "contract ISuperToken",
          "name": "superToken",
          "type": "address"
        },
        {
          "internalType": "address",
          "name": "agreementClass",
          "type": "address"
        },
        {
          "internalType": "bytes32",
          "name": "agreementId",
          "type": "bytes32"
        },
        {
          "internalType": "bytes",
          "name": "agreementData",
          "type": "bytes"
        },
        {
          "internalType": "bytes",
          "name": "",
          "type": "bytes"
        },
        {
          "internalType": "bytes",
          "name": "ctx",
          "type": "bytes"
        }
      ],
      "name": "afterAgreementUpdated",
      "outputs": [
        {
          "internalType": "bytes",
          "name": "newCtx",
          "type": "bytes"
        }
      ],
      "stateMutability": "nonpayable",
      "type": "function"
    },
    {
      "inputs": [
        {
          "internalType": "contract ISuperToken",
          "name": "",
          "type": "address"
        },
        {
          "internalType": "address",
          "name": "",
          "type": "address"
        },
        {
          "internalType": "bytes32",
          "name": "",
          "type": "bytes32"
        },
        {
          "internalType": "bytes",
          "name": "",
          "type": "bytes"
        },
        {
          "internalType": "bytes",
          "name": "",
          "type": "bytes"
        }
      ],
      "name": "beforeAgreementCreated",
      "outputs": [
        {
          "internalType": "bytes",
          "name": "",
          "type": "bytes"
        }
      ],
      "stateMutability": "view",
      "type": "function"
    },
    {
      "inputs": [
        {
          "internalType": "contract ISuperToken",
          "name": "",
          "type": "address"
        },
        {
          "internalType": "address",
          "name": "",
          "type": "address"
        },
        {
          "internalType": "bytes32",
          "name": "",
          "type": "bytes32"
        },
        {
          "internalType": "bytes",
          "name": "",
          "type": "bytes"
        },
        {
          "internalType": "bytes",
          "name": "",
          "type": "bytes"
        }
      ],
      "name": "beforeAgreementTerminated",
      "outputs": [
        {
          "internalType": "bytes",
          "name": "",
          "type": "bytes"
        }
      ],
      "stateMutability": "view",
      "type": "function"
    },
    {
      "inputs": [
        {
          "internalType": "contract ISuperToken",
          "name": "",
          "type": "address"
        },
        {
          "internalType": "address",
          "name": "",
          "type": "address"
        },
        {
          "internalType": "bytes32",
          "name": "",
          "type": "bytes32"
        },
        {
          "internalType": "bytes",
          "name": "",
          "type": "bytes"
        },
        {
          "internalType": "bytes",
          "name": "",
          "type": "bytes"
        }
      ],
      "name": "beforeAgreementUpdated",
      "outputs": [
        {
          "internalType": "bytes",
          "name": "",
          "type": "bytes"
        }
      ],
      "stateMutability": "view",
      "type": "function"
    },
    {
      "inputs": [
        {
          "internalType": "address",
          "name": "",
          "type": "address"
        }
      ],
      "name": "savers",
      "outputs": [
        {
          "internalType": "uint256",
          "name": "timestamp",
          "type": "uint256"
        },
        {
          "internalType": "int96",
          "name": "flowRate",
          "type": "int96"
        },
        {
          "internalType": "uint256",
          "name": "depositableBalance",
          "type": "uint256"
        },
        {
          "internalType": "uint256",
          "name": "totalStreamed",
          "type": "uint256"
        },
        {
          "internalType": "bool",
          "name": "isTerminated",
          "type": "bool"
        }
      ],
      "stateMutability": "view",
      "type": "function"
    }
  ],
  "bytecode": "0x6101006040523480156200001257600080fd5b506040516200536a3803806200536a833981810160405281019062000038919062000518565b600073ffffffffffffffffffffffffffffffffffffffff168673ffffffffffffffffffffffffffffffffffffffff161415620000ab576040517f08c379a0000000000000000000000000000000000000000000000000000000008152600401620000a29062000795565b60405180910390fd5b600073ffffffffffffffffffffffffffffffffffffffff168573ffffffffffffffffffffffffffffffffffffffff1614156200011e576040517f08c379a000000000000000000000000000000000000000000000000000000000815260040162000115906200072f565b60405180910390fd5b600073ffffffffffffffffffffffffffffffffffffffff168473ffffffffffffffffffffffffffffffffffffffff16141562000191576040517f08c379a0000000000000000000000000000000000000000000000000000000008152600401620001889062000773565b60405180910390fd5b600073ffffffffffffffffffffffffffffffffffffffff168273ffffffffffffffffffffffffffffffffffffffff16141562000204576040517f08c379a0000000000000000000000000000000000000000000000000000000008152600401620001fb9062000751565b60405180910390fd5b600073ffffffffffffffffffffffffffffffffffffffff168173ffffffffffffffffffffffffffffffffffffffff16141562000277576040517f08c379a00000000000000000000000000000000000000000000000000000000081526004016200026e90620007b7565b60405180910390fd5b85600160006101000a81548173ffffffffffffffffffffffffffffffffffffffff021916908373ffffffffffffffffffffffffffffffffffffffff1602179055508473ffffffffffffffffffffffffffffffffffffffff1660808173ffffffffffffffffffffffffffffffffffffffff1660601b815250508373ffffffffffffffffffffffffffffffffffffffff1660a08173ffffffffffffffffffffffffffffffffffffffff1660601b8152505081600260006101000a81548173ffffffffffffffffffffffffffffffffffffffff021916908373ffffffffffffffffffffffffffffffffffffffff1602179055508073ffffffffffffffffffffffffffffffffffffffff1660e08173ffffffffffffffffffffffffffffffffffffffff1660601b815250508273ffffffffffffffffffffffffffffffffffffffff1660c08173ffffffffffffffffffffffffffffffffffffffff1660601b81525050600064100000000064040000000064010000000060011717179050600160009054906101000a900473ffffffffffffffffffffffffffffffffffffffff1673ffffffffffffffffffffffffffffffffffffffff1663ad3915c8826040518263ffffffff1660e01b81526004016200044d9190620007d9565b600060405180830381600087803b1580156200046857600080fd5b505af11580156200047d573d6000803e3d6000fd5b505050505050505050505062000959565b6000815190506200049f81620008bd565b92915050565b600081519050620004b681620008d7565b92915050565b600081519050620004cd81620008f1565b92915050565b600081519050620004e4816200090b565b92915050565b600081519050620004fb8162000925565b92915050565b60008151905062000512816200093f565b92915050565b60008060008060008060c087890312156200053257600080fd5b60006200054289828a01620004ea565b96505060206200055589828a01620004a5565b95505060406200056889828a01620004d3565b94505060606200057b89828a016200048e565b93505060806200058e89828a01620004bc565b92505060a0620005a189828a0162000501565b9150509295509295509295565b6000620005bd601583620007f6565b91507f41756374696f6e3a2063666120697320656d70747900000000000000000000006000830152602082019050919050565b6000620005ff602983620007f6565b91507f41756374696f6e3a20616176654c656e64696e67506f6f6c50726f766964657260008301527f20697320656d70747900000000000000000000000000000000000000000000006020830152604082019050919050565b600062000667601c83620007f6565b91507f41756374696f6e3a207375706572546f6b656e20697320656d707479000000006000830152602082019050919050565b6000620006a9601683620007f6565b91507f41756374696f6e3a20686f737420697320656d707479000000000000000000006000830152602082019050919050565b6000620006eb601f83620007f6565b91507f41756374696f6e3a20756e6973776170526f7574657220697320656d707479006000830152602082019050919050565b6200072981620008b3565b82525050565b600060208201905081810360008301526200074a81620005ae565b9050919050565b600060208201905081810360008301526200076c81620005f0565b9050919050565b600060208201905081810360008301526200078e8162000658565b9050919050565b60006020820190508181036000830152620007b0816200069a565b9050919050565b60006020820190508181036000830152620007d281620006dc565b9050919050565b6000602082019050620007f060008301846200071e565b92915050565b600082825260208201905092915050565b6000620008148262000893565b9050919050565b6000620008288262000807565b9050919050565b60006200083c8262000807565b9050919050565b6000620008508262000807565b9050919050565b6000620008648262000807565b9050919050565b6000620008788262000807565b9050919050565b60006200088c8262000807565b9050919050565b600073ffffffffffffffffffffffffffffffffffffffff82169050919050565b6000819050919050565b620008c8816200081b565b8114620008d457600080fd5b50565b620008e2816200082f565b8114620008ee57600080fd5b50565b620008fc8162000843565b81146200090857600080fd5b50565b620009168162000857565b81146200092257600080fd5b50565b62000930816200086b565b81146200093c57600080fd5b50565b6200094a816200087f565b81146200095657600080fd5b50565b60805160601c60a05160601c60c05160601c60e05160601c61496b620009ff60003980610ee5528061238352806124835250806107e25280610a52528061142352806114965280611631528061177852806118875250806108e05280610b795280610bc15280610c4c52806110e65280611190528061127752806118ab5280611a515280611cf35280612d72525080610f095280611cb75280612d36525061496b6000f3fe608060405234801561001057600080fd5b50600436106100ea5760003560e01c80637cb4d6d71161008c5780639a730aff116100665780639a730aff146102af5780639b50a2c4146102b9578063c8b53aef146102d7578063d86ed3e5146102f5576100ea565b80637cb4d6d714610231578063884d1f401461024f57806393c56aef1461027f576100ea565b806353c11f99116100c857806353c11f991461017f5780635c63cacb146101af5780635f9e7d77146101e357806365b61b7714610213576100ea565b8063230dbd29146100ef578063293311ab1461011f57806330d9c9151461014f575b600080fd5b61010960048036038101906101049190613c25565b610325565b6040516101169190614226565b60405180910390f35b61013960048036038101906101349190613daf565b6104a5565b604051610146919061433d565b60405180910390f35b61016960048036038101906101649190613b75565b610d01565b6040516101769190614226565b60405180910390f35b61019960048036038101906101949190613c25565b610d54565b6040516101a69190614226565b60405180910390f35b6101c960048036038101906101c49190613a54565b610e40565b6040516101da959493929190614358565b60405180910390f35b6101fd60048036038101906101f89190613b75565b610e90565b60405161020a9190614226565b60405180910390f35b61021b610ee3565b60405161022891906142c2565b60405180910390f35b610239610f07565b6040516102469190614263565b60405180910390f35b61026960048036038101906102649190613b75565b610f2b565b6040516102769190614226565b60405180910390f35b61029960048036038101906102949190613a54565b610f7e565b6040516102a6919061433d565b60405180910390f35b6102b7610f91565b005b6102c1611885565b6040516102ce9190614248565b60405180910390f35b6102df6118a9565b6040516102ec919061427e565b60405180910390f35b61030f600480360381019061030a9190613c25565b6118cd565b60405161031c9190614226565b60405180910390f35b6060600160009054906101000a900473ffffffffffffffffffffffffffffffffffffffff1673ffffffffffffffffffffffffffffffffffffffff163373ffffffffffffffffffffffffffffffffffffffff16146103b7576040517f08c379a00000000000000000000000000000000000000000000000000000000081526004016103ae9061431d565b60405180910390fd5b89896103c282611a4d565b610401576040517f08c379a00000000000000000000000000000000000000000000000000000000081526004016103f8906142fd565b60405180910390fd5b61040a81611aa5565b610449576040517f08c379a0000000000000000000000000000000000000000000000000000000008152600401610440906142dd565b60405180910390fd5b6104876040518060400160405280601c81526020017f616674657241677265656d656e74557064617465642063616c6c656400000000815250611b4e565b61049485858b8b8e611c4c565b925050509998505050505050505050565b60006104e56040518060400160405280601e81526020017f616d6f756e742072657175657374656420746f2077697468647261773a200000815250611b4e565b6104ee8361217d565b61052c6040518060400160405280601f81526020017f61546f6b656e2062616c616e636520666f72206d73672e73656e6465723a2000815250611b4e565b6105bd8273ffffffffffffffffffffffffffffffffffffffff166370a08231336040518263ffffffff1660e01b815260040161056891906140b9565b60206040518083038186803b15801561058057600080fd5b505afa158015610594573d6000803e3d6000fd5b505050506040513d601f19601f820116820180604052508101906105b89190613d86565b61217d565b6105fb6040518060400160405280601a81526020017f616c6c6f77616e636520746f207370656e6420746f6b656e733a000000000000815250611b4e565b61068e8273ffffffffffffffffffffffffffffffffffffffff1663dd62ed3e33306040518363ffffffff1660e01b81526004016106399291906140d4565b60206040518083038186803b15801561065157600080fd5b505afa158015610665573d6000803e3d6000fd5b505050506040513d601f19601f820116820180604052508101906106899190613d86565b61217d565b8173ffffffffffffffffffffffffffffffffffffffff166323b872dd3330866040518463ffffffff1660e01b81526004016106cb939291906140fd565b602060405180830381600087803b1580156106e557600080fd5b505af11580156106f9573d6000803e3d6000fd5b505050506040513d601f19601f8201168201806040525081019061071d9190613b23565b506000600260009054906101000a900473ffffffffffffffffffffffffffffffffffffffff1673ffffffffffffffffffffffffffffffffffffffff16630261bf8b6040518163ffffffff1660e01b815260040160206040518083038186803b15801561078857600080fd5b505afa15801561079c573d6000803e3d6000fd5b505050506040513d601f19601f820116820180604052508101906107c09190613a7d565b905060008173ffffffffffffffffffffffffffffffffffffffff166369328dec7f00000000000000000000000000000000000000000000000000000000000000007fffffffffffffffffffffffffffffffffffffffffffffffffffffffffffffffff306040518463ffffffff1660e01b815260040161084193929190614186565b602060405180830381600087803b15801561085b57600080fd5b505af115801561086f573d6000803e3d6000fd5b505050506040513d601f19601f820116820180604052508101906108939190613d86565b90506108d36040518060400160405280600981526020017f77697468647261776e0000000000000000000000000000000000000000000000815250611b4e565b6108dc8161217d565b60007f000000000000000000000000000000000000000000000000000000000000000073ffffffffffffffffffffffffffffffffffffffff1663ee719bc86040518163ffffffff1660e01b815260040160206040518083038186803b15801561094457600080fd5b505afa158015610958573d6000803e3d6000fd5b505050506040513d601f19601f8201168201806040525081019061097c9190613a7d565b90506109bc6040518060400160405280601981526020017f756e6465726c79696e67546f6b656e2062616c616e63653a2000000000000000815250611b4e565b610a4d8173ffffffffffffffffffffffffffffffffffffffff166370a08231306040518263ffffffff1660e01b81526004016109f8919061409e565b60206040518083038186803b158015610a1057600080fd5b505afa158015610a24573d6000803e3d6000fd5b505050506040513d601f19601f82011682018060405250810190610a489190613d86565b61217d565b610a797f0000000000000000000000000000000000000000000000000000000000000000823089612216565b9350610ab96040518060400160405280601081526020017f737761704f7574707574416d6f756e7400000000000000000000000000000000815250611b4e565b610ac28461217d565b610ae360405180606001604052806024815260200161488a60249139611b4e565b610b748173ffffffffffffffffffffffffffffffffffffffff166370a08231306040518263ffffffff1660e01b8152600401610b1f919061409e565b60206040518083038186803b158015610b3757600080fd5b505afa158015610b4b573d6000803e3d6000fd5b505050506040513d601f19601f82011682018060405250810190610b6f9190613d86565b61217d565b610bbf7f0000000000000000000000000000000000000000000000000000000000000000858373ffffffffffffffffffffffffffffffffffffffff1661255e9092919063ffffffff16565b7f000000000000000000000000000000000000000000000000000000000000000073ffffffffffffffffffffffffffffffffffffffff166345977d03856040518263ffffffff1660e01b8152600401610c18919061433d565b600060405180830381600087803b158015610c3257600080fd5b505af1158015610c46573d6000803e3d6000fd5b505050507f000000000000000000000000000000000000000000000000000000000000000073ffffffffffffffffffffffffffffffffffffffff1663a9059cbb33866040518363ffffffff1660e01b8152600401610ca5929190614134565b602060405180830381600087803b158015610cbf57600080fd5b505af1158015610cd3573d6000803e3d6000fd5b505050506040513d601f19601f82011682018060405250810190610cf79190613b23565b5050505092915050565b60606040517f08c379a000000000000000000000000000000000000000000000000000000000815260040180806020018281038252602f8152602001806148dd602f913960400191505060405180910390fd5b6060600160009054906101000a900473ffffffffffffffffffffffffffffffffffffffff1673ffffffffffffffffffffffffffffffffffffffff163373ffffffffffffffffffffffffffffffffffffffff1614610de6576040517f08c379a0000000000000000000000000000000000000000000000000000000008152600401610ddd9061431d565b60405180910390fd5b610e246040518060400160405280601f81526020017f616674657241677265656d656e745465726d696e617465642063616c6c656400815250611b4e565b610e31838389898c611c4c565b90509998505050505050505050565b60006020528060005260406000206000915090508060000154908060010160009054906101000a9004600b0b908060020154908060030154908060040160009054906101000a900460ff16905085565b60606040517f08c379a00000000000000000000000000000000000000000000000000000000081526004018080602001828103825260338152602001806148106033913960400191505060405180910390fd5b7f000000000000000000000000000000000000000000000000000000000000000081565b7f000000000000000000000000000000000000000000000000000000000000000081565b60606040517f08c379a000000000000000000000000000000000000000000000000000000000815260040180806020018281038252602f8152602001806148ae602f913960400191505060405180910390fd5b6000610f8a82426126d7565b9050919050565b6000429050610fd46040518060400160405280600c81526020017f6d73672e73656e6465723a200000000000000000000000000000000000000000815250611b4e565b610fdd336129a9565b6000610fe93383612a58565b90506110296040518060400160405280601581526020017f62616c616e63654174436865636b706f696e743a200000000000000000000000815250611b4e565b6110328161217d565b600081905060007fffffffffffffffffffffffffffffffffffffffffffffffffffffffffffffffff905061109a6040518060400160405280600881526020017f616d6f756e743a20000000000000000000000000000000000000000000000000815250611b4e565b6110a381612b83565b6110e16040518060400160405280601481526020017f5f7375706572546f6b656e2073796d626f6c3a20000000000000000000000000815250611b4e565b61118c7f000000000000000000000000000000000000000000000000000000000000000073ffffffffffffffffffffffffffffffffffffffff166306fdde036040518163ffffffff1660e01b815260040160006040518083038186803b15801561114a57600080fd5b505afa15801561115e573d6000803e3d6000fd5b505050506040513d6000823e3d601f19601f820116820180604052508101906111879190613d04565b611b4e565b60007f000000000000000000000000000000000000000000000000000000000000000073ffffffffffffffffffffffffffffffffffffffff1663ee719bc86040518163ffffffff1660e01b815260040160206040518083038186803b1580156111f457600080fd5b505afa158015611208573d6000803e3d6000fd5b505050506040513d601f19601f8201168201806040525081019061122c9190613a7d565b905061126c6040518060400160405280601181526020017f756e6465726c79696e67546f6b656e3a20000000000000000000000000000000815250611b4e565b61127581612c1c565b7f000000000000000000000000000000000000000000000000000000000000000073ffffffffffffffffffffffffffffffffffffffff166311bcc81e846040518263ffffffff1660e01b81526004016112ce919061433d565b600060405180830381600087803b1580156112e857600080fd5b505af11580156112fc573d6000803e3d6000fd5b5050505061133e6040518060400160405280601181526020017f616d6f756e74546f4465706f7369743a20000000000000000000000000000000815250611b4e565b6113478361217d565b60008173ffffffffffffffffffffffffffffffffffffffff166370a08231306040518263ffffffff1660e01b8152600401611382919061409e565b60206040518083038186803b15801561139a57600080fd5b505afa1580156113ae573d6000803e3d6000fd5b505050506040513d601f19601f820116820180604052508101906113d29190613d86565b90506114126040518060400160405280601981526020017f756e6465726c79696e67546f6b656e2062616c616e63653a2000000000000000815250611b4e565b61141b8161217d565b6000611449837f00000000000000000000000000000000000000000000000000000000000000003088612216565b90506114896040518060400160405280601081526020017f737761704f7574707574416d6f756e7400000000000000000000000000000000815250611b4e565b6114928161217d565b60007f000000000000000000000000000000000000000000000000000000000000000073ffffffffffffffffffffffffffffffffffffffff166370a08231306040518263ffffffff1660e01b81526004016114ed919061409e565b60206040518083038186803b15801561150557600080fd5b505afa158015611519573d6000803e3d6000fd5b505050506040513d601f19601f8201168201806040525081019061153d9190613d86565b905061157d6040518060400160405280601281526020017f6f7574707574546f6b656e42616c616e63650000000000000000000000000000815250611b4e565b6115868161217d565b6000600260009054906101000a900473ffffffffffffffffffffffffffffffffffffffff16905060008173ffffffffffffffffffffffffffffffffffffffff16630261bf8b6040518163ffffffff1660e01b815260040160206040518083038186803b1580156115f557600080fd5b505afa158015611609573d6000803e3d6000fd5b505050506040513d601f19601f8201168201806040525081019061162d9190613a7d565b90507f000000000000000000000000000000000000000000000000000000000000000073ffffffffffffffffffffffffffffffffffffffff1663095ea7b38373ffffffffffffffffffffffffffffffffffffffff16630261bf8b6040518163ffffffff1660e01b815260040160206040518083038186803b1580156116b157600080fd5b505afa1580156116c5573d6000803e3d6000fd5b505050506040513d601f19601f820116820180604052508101906116e99190613a7d565b866040518363ffffffff1660e01b815260040161170792919061415d565b602060405180830381600087803b15801561172157600080fd5b505af1158015611735573d6000803e3d6000fd5b505050506040513d601f19601f820116820180604052508101906117599190613b23565b508073ffffffffffffffffffffffffffffffffffffffff1663e8eda9df7f0000000000000000000000000000000000000000000000000000000000000000863360006040518563ffffffff1660e01b81526004016117ba94939291906141bd565b600060405180830381600087803b1580156117d457600080fd5b505af11580156117e8573d6000803e3d6000fd5b50505050896000803373ffffffffffffffffffffffffffffffffffffffff1673ffffffffffffffffffffffffffffffffffffffff1681526020019081526020016000206000018190555060008060003373ffffffffffffffffffffffffffffffffffffffff1673ffffffffffffffffffffffffffffffffffffffff1681526020019081526020016000206002018190555050505050505050505050565b7f000000000000000000000000000000000000000000000000000000000000000081565b7f000000000000000000000000000000000000000000000000000000000000000081565b6060600160009054906101000a900473ffffffffffffffffffffffffffffffffffffffff1673ffffffffffffffffffffffffffffffffffffffff163373ffffffffffffffffffffffffffffffffffffffff161461195f576040517f08c379a00000000000000000000000000000000000000000000000000000000081526004016119569061431d565b60405180910390fd5b898961196a82611a4d565b6119a9576040517f08c379a00000000000000000000000000000000000000000000000000000000081526004016119a0906142fd565b60405180910390fd5b6119b281611aa5565b6119f1576040517f08c379a00000000000000000000000000000000000000000000000000000000081526004016119e8906142dd565b60405180910390fd5b611a2f6040518060400160405280601c81526020017f616674657241677265656d656e74437265617465642063616c6c656400000000815250611b4e565b611a3c85858b8b8e612ccb565b925050509998505050505050505050565b60007f000000000000000000000000000000000000000000000000000000000000000073ffffffffffffffffffffffffffffffffffffffff168273ffffffffffffffffffffffffffffffffffffffff16149050919050565b60007fa9214cc96615e0085d3bb077758db69497dc2dce3b2b1e97bc93c3d18d83efd38273ffffffffffffffffffffffffffffffffffffffff16637730599e6040518163ffffffff1660e01b815260040160206040518083038186803b158015611b0e57600080fd5b505afa158015611b22573d6000803e3d6000fd5b505050506040513d601f19601f82011682018060405250810190611b469190613b4c565b149050919050565b611c49816040516024018080602001828103825283818151815260200191508051906020019080838360005b83811015611b95578082015181840152602081019050611b7a565b50505050905090810190601f168015611bc25780820380516001836020036101000a031916815260200191505b50925050506040516020818303038152906040527f41304fac000000000000000000000000000000000000000000000000000000007bffffffffffffffffffffffffffffffffffffffffffffffffffffffff19166020820180517bffffffffffffffffffffffffffffffffffffffffffffffffffffffff8381831617835250505050612fb5565b50565b606085858080601f016020809104026020016040519081016040528093929190818152602001838380828437600081840152601f19601f820116905080830192505050505050509050611c9e82612fde565b60008484810190611caf9190613aa6565b5090506000807f000000000000000000000000000000000000000000000000000000000000000073ffffffffffffffffffffffffffffffffffffffff1663aabd26687f0000000000000000000000000000000000000000000000000000000000000000876040518363ffffffff1660e01b8152600401611d30929190614299565b60806040518083038186803b158015611d4857600080fd5b505afa158015611d5c573d6000803e3d6000fd5b505050506040513d601f19601f82011682018060405250810190611d809190613deb565b505091509150600081600b0b1415611eef57611dd06040518060400160405280601081526020017f64656c6574696e6720666c6f772e2e2e00000000000000000000000000000000815250611b4e565b60016000808573ffffffffffffffffffffffffffffffffffffffff1673ffffffffffffffffffffffffffffffffffffffff16815260200190815260200160002060040160006101000a81548160ff021916908315150217905550611e32613620565b600160009054906101000a900473ffffffffffffffffffffffffffffffffffffffff1673ffffffffffffffffffffffffffffffffffffffff16633f6c923a8b8b6040518363ffffffff1660e01b8152600401611e8f929190614202565b60006040518083038186803b158015611ea757600080fd5b505afa158015611ebb573d6000803e3d6000fd5b505050506040513d6000823e3d601f19601f82011682018060405250810190611ee49190613d45565b905080604001519250505b611f2d6040518060400160405280601081526020017f7570646174656454696d657374616d7000000000000000000000000000000000815250611b4e565b611f368261217d565b611f746040518060400160405280600f81526020017f75706461746564466c6f77526174650000000000000000000000000000000000815250611b4e565b611f8081600b0b612b83565b6000611f8c8484612a58565b90506000611f9a85856126d7565b9050611fda6040518060400160405280601281526020017f6465706f73697461626c6542616c616e63650000000000000000000000000000815250611b4e565b611fe38261217d565b6120216040518060400160405280600d81526020017f746f74616c53747265616d656400000000000000000000000000000000000000815250611b4e565b61202a8161217d565b816000808773ffffffffffffffffffffffffffffffffffffffff1673ffffffffffffffffffffffffffffffffffffffff16815260200190815260200160002060020181905550806000808773ffffffffffffffffffffffffffffffffffffffff1673ffffffffffffffffffffffffffffffffffffffff16815260200190815260200160002060030181905550836000808773ffffffffffffffffffffffffffffffffffffffff1673ffffffffffffffffffffffffffffffffffffffff16815260200190815260200160002060000181905550826000808773ffffffffffffffffffffffffffffffffffffffff1673ffffffffffffffffffffffffffffffffffffffff16815260200190815260200160002060010160006101000a8154816bffffffffffffffffffffffff0219169083600b0b6bffffffffffffffffffffffff160217905550505050505095945050505050565b61221381604051602401808281526020019150506040516020818303038152906040527ff5b1bba9000000000000000000000000000000000000000000000000000000007bffffffffffffffffffffffffffffffffffffffffffffffffffffffff19166020820180517bffffffffffffffffffffffffffffffffffffffffffffffffffffffff8381831617835250505050612fb5565b50565b60006060600267ffffffffffffffff8111801561223257600080fd5b506040519080825280602002602001820160405280156122615781602001602082028036833780820191505090505b509050858160008151811061227257fe5b602002602001019073ffffffffffffffffffffffffffffffffffffffff16908173ffffffffffffffffffffffffffffffffffffffff168152505084816001815181106122ba57fe5b602002602001019073ffffffffffffffffffffffffffffffffffffffff16908173ffffffffffffffffffffffffffffffffffffffff1681525050600061231c61230d60c88661307790919063ffffffff16565b8561310090919063ffffffff16565b905060006123356104b04261318390919063ffffffff16565b90506123756040518060400160405280600e81526020017f6d696e5472616465416d6f756e74000000000000000000000000000000000000815250611b4e565b61237e8261217d565b6123c97f0000000000000000000000000000000000000000000000000000000000000000868a73ffffffffffffffffffffffffffffffffffffffff1661255e9092919063ffffffff16565b6124076040518060400160405280600781526020017f706174685b305d00000000000000000000000000000000000000000000000000815250611b4e565b6124248360008151811061241757fe5b6020026020010151612c1c565b6124626040518060400160405280600781526020017f706174685b315d00000000000000000000000000000000000000000000000000815250611b4e565b61247f8360018151811061247257fe5b6020026020010151612c1c565b60607f000000000000000000000000000000000000000000000000000000000000000073ffffffffffffffffffffffffffffffffffffffff166338ed17398785878b876040518663ffffffff1660e01b81526004016124e29594939291906143ab565b600060405180830381600087803b1580156124fc57600080fd5b505af1158015612510573d6000803e3d6000fd5b505050506040513d6000823e3d601f19601f820116820180604052508101906125399190613ae2565b90508060018151811061254857fe5b6020026020010151945050505050949350505050565b6000612632828573ffffffffffffffffffffffffffffffffffffffff1663dd62ed3e30876040518363ffffffff1660e01b8152600401808373ffffffffffffffffffffffffffffffffffffffff1681526020018273ffffffffffffffffffffffffffffffffffffffff1681526020019250505060206040518083038186803b1580156125e957600080fd5b505afa1580156125fd573d6000803e3d6000fd5b505050506040513d602081101561261357600080fd5b810190808051906020019092919050505061318390919063ffffffff16565b90506126d18463095ea7b360e01b8584604051602401808373ffffffffffffffffffffffffffffffffffffffff16815260200182815260200192505050604051602081830303815290604052907bffffffffffffffffffffffffffffffffffffffffffffffffffffffff19166020820180517bffffffffffffffffffffffffffffffffffffffffffffffffffffffff838183161783525050505061320b565b50505050565b6000806000808573ffffffffffffffffffffffffffffffffffffffff1673ffffffffffffffffffffffffffffffffffffffff16815260200190815260200160002060010160009054906101000a9004600b0b905060008060008673ffffffffffffffffffffffffffffffffffffffff1673ffffffffffffffffffffffffffffffffffffffff1681526020019081526020016000206000015490506000612786828661310090919063ffffffff16565b905060006127f36127a385600b0b846132fa90919063ffffffff16565b6000808a73ffffffffffffffffffffffffffffffffffffffff1673ffffffffffffffffffffffffffffffffffffffff1681526020019081526020016000206003015461318390919063ffffffff16565b90506128336040518060400160405280600c81526020017f70726576466c6f77526174650000000000000000000000000000000000000000815250611b4e565b61283f84600b0b612b83565b61287d6040518060400160405280601181526020017f70726576546f74616c53747265616d6564000000000000000000000000000000815250611b4e565b6128c76000808973ffffffffffffffffffffffffffffffffffffffff1673ffffffffffffffffffffffffffffffffffffffff1681526020019081526020016000206003015461217d565b6129056040518060400160405280600d81526020017f7072657654696d657374616d7000000000000000000000000000000000000000815250611b4e565b61290e8361217d565b61294c6040518060400160405280600981526020017f74696d6544656c74610000000000000000000000000000000000000000000000815250611b4e565b6129558261217d565b6129936040518060400160405280601081526020017f6e6577546f74616c53747265616d656400000000000000000000000000000000815250611b4e565b61299c8161217d565b8094505050505092915050565b612a5581604051602401808273ffffffffffffffffffffffffffffffffffffffff1681526020019150506040516020818303038152906040527f2c2ecbc2000000000000000000000000000000000000000000000000000000007bffffffffffffffffffffffffffffffffffffffffffffffffffffffff19166020820180517bffffffffffffffffffffffffffffffffffffffffffffffffffffffff8381831617835250505050612fb5565b50565b6000806000808573ffffffffffffffffffffffffffffffffffffffff1673ffffffffffffffffffffffffffffffffffffffff16815260200190815260200160002060010160009054906101000a9004600b0b905060008060008673ffffffffffffffffffffffffffffffffffffffff1673ffffffffffffffffffffffffffffffffffffffff1681526020019081526020016000206000015490506000612b07828661310090919063ffffffff16565b90506000612b74612b2485600b0b846132fa90919063ffffffff16565b6000808a73ffffffffffffffffffffffffffffffffffffffff1673ffffffffffffffffffffffffffffffffffffffff1681526020019081526020016000206002015461318390919063ffffffff16565b90508094505050505092915050565b612c1981604051602401808281526020019150506040516020818303038152906040527f4e0c1d1d000000000000000000000000000000000000000000000000000000007bffffffffffffffffffffffffffffffffffffffffffffffffffffffff19166020820180517bffffffffffffffffffffffffffffffffffffffffffffffffffffffff8381831617835250505050612fb5565b50565b612cc881604051602401808273ffffffffffffffffffffffffffffffffffffffff1681526020019150506040516020818303038152906040527f2c2ecbc2000000000000000000000000000000000000000000000000000000007bffffffffffffffffffffffffffffffffffffffffffffffffffffffff19166020820180517bffffffffffffffffffffffffffffffffffffffffffffffffffffffff8381831617835250505050612fb5565b50565b606085858080601f016020809104026020016040519081016040528093929190818152602001838380828437600081840152601f19601f820116905080830192505050505050509050612d1d82612fde565b60008484810190612d2e9190613aa6565b5090506000807f000000000000000000000000000000000000000000000000000000000000000073ffffffffffffffffffffffffffffffffffffffff1663aabd26687f0000000000000000000000000000000000000000000000000000000000000000876040518363ffffffff1660e01b8152600401612daf929190614299565b60806040518083038186803b158015612dc757600080fd5b505afa158015612ddb573d6000803e3d6000fd5b505050506040513d601f19601f82011682018060405250810190612dff9190613deb565b505091509150612e436040518060400160405280601081526020017f7570646174656454696d657374616d7000000000000000000000000000000000815250611b4e565b612e4c8261217d565b612e8a6040518060400160405280600f81526020017f75706461746564466c6f77526174650000000000000000000000000000000000815250611b4e565b612e9681600b0b612b83565b816000808573ffffffffffffffffffffffffffffffffffffffff1673ffffffffffffffffffffffffffffffffffffffff16815260200190815260200160002060000181905550806000808573ffffffffffffffffffffffffffffffffffffffff1673ffffffffffffffffffffffffffffffffffffffff16815260200190815260200160002060010160006101000a8154816bffffffffffffffffffffffff0219169083600b0b6bffffffffffffffffffffffff16021790555060008060008573ffffffffffffffffffffffffffffffffffffffff1673ffffffffffffffffffffffffffffffffffffffff16815260200190815260200160002060040160006101000a81548160ff02191690831515021790555050505095945050505050565b60008151905060006a636f6e736f6c652e6c6f679050602083016000808483855afa5050505050565b61307481604051602401808281526020019150506040516020818303038152906040527f27b7cf85000000000000000000000000000000000000000000000000000000007bffffffffffffffffffffffffffffffffffffffffffffffffffffffff19166020820180517bffffffffffffffffffffffffffffffffffffffffffffffffffffffff8381831617835250505050612fb5565b50565b60008082116130ee576040517f08c379a000000000000000000000000000000000000000000000000000000000815260040180806020018281038252601a8152602001807f536166654d6174683a206469766973696f6e206279207a65726f00000000000081525060200191505060405180910390fd5b8183816130f757fe5b04905092915050565b600082821115613178576040517f08c379a000000000000000000000000000000000000000000000000000000000815260040180806020018281038252601e8152602001807f536166654d6174683a207375627472616374696f6e206f766572666c6f77000081525060200191505060405180910390fd5b818303905092915050565b600080828401905083811015613201576040517f08c379a000000000000000000000000000000000000000000000000000000000815260040180806020018281038252601b8152602001807f536166654d6174683a206164646974696f6e206f766572666c6f77000000000081525060200191505060405180910390fd5b8091505092915050565b606061326d826040518060400160405280602081526020017f5361666545524332303a206c6f772d6c6576656c2063616c6c206661696c65648152508573ffffffffffffffffffffffffffffffffffffffff166133809092919063ffffffff16565b90506000815111156132f55780806020019051602081101561328e57600080fd5b81019080805190602001909291905050506132f4576040517f08c379a000000000000000000000000000000000000000000000000000000000815260040180806020018281038252602a81526020018061490c602a913960400191505060405180910390fd5b5b505050565b60008083141561330d576000905061337a565b600082840290508284828161331e57fe5b0414613375576040517f08c379a00000000000000000000000000000000000000000000000000000000081526004018080602001828103825260218152602001806148696021913960400191505060405180910390fd5b809150505b92915050565b606061338f8484600085613398565b90509392505050565b6060824710156133f3576040517f08c379a00000000000000000000000000000000000000000000000000000000081526004018080602001828103825260268152602001806148436026913960400191505060405180910390fd5b6133fc85613541565b61346e576040517f08c379a000000000000000000000000000000000000000000000000000000000815260040180806020018281038252601d8152602001807f416464726573733a2063616c6c20746f206e6f6e2d636f6e747261637400000081525060200191505060405180910390fd5b600060608673ffffffffffffffffffffffffffffffffffffffff1685876040518082805190602001908083835b602083106134be578051825260208201915060208101905060208303925061349b565b6001836020036101000a03801982511681845116808217855250505050505090500191505060006040518083038185875af1925050503d8060008114613520576040519150601f19603f3d011682016040523d82523d6000602084013e613525565b606091505b5091509150613535828286613554565b92505050949350505050565b600080823b905060008111915050919050565b6060831561356457829050613619565b6000835111156135775782518084602001fd5b816040517f08c379a00000000000000000000000000000000000000000000000000000000081526004018080602001828103825283818151815260200191508051906020019080838360005b838110156135de5780820151818401526020810190506135c3565b50505050905090810190601f16801561360b5780820380516001836020036101000a031916815260200191505b509250505060405180910390fd5b9392505050565b604051806101400160405280600060ff168152602001600060ff16815260200160008152602001600073ffffffffffffffffffffffffffffffffffffffff16815260200160007bffffffffffffffffffffffffffffffffffffffffffffffffffffffff1916815260200160608152602001600081526020016000815260200160008152602001600073ffffffffffffffffffffffffffffffffffffffff1681525090565b6000813590506136d381614729565b92915050565b6000815190506136e881614729565b92915050565b6000813590506136fd81614740565b92915050565b600082601f83011261371457600080fd5b815161372761372282614436565b614405565b9150818183526020840193506020810190508385602084028201111561374c57600080fd5b60005b8381101561377c57816137628882613a2a565b84526020840193506020830192505060018101905061374f565b5050505092915050565b60008151905061379581614757565b92915050565b6000813590506137aa8161476e565b92915050565b6000815190506137bf8161476e565b92915050565b6000815190506137d481614785565b92915050565b60008083601f8401126137ec57600080fd5b8235905067ffffffffffffffff81111561380557600080fd5b60208301915083600182028301111561381d57600080fd5b9250929050565b600082601f83011261383557600080fd5b815161384861384382614462565b614405565b9150808252602083016020830185838301111561386457600080fd5b61386f8382846146e3565b50505092915050565b6000813590506138878161479c565b92915050565b60008151905061389c816147b3565b92915050565b6000815190506138b1816147ca565b92915050565b600082601f8301126138c857600080fd5b81516138db6138d682614492565b614405565b915080825260208301602083018583830111156138f757600080fd5b6139028382846146e3565b50505092915050565b6000610140828403121561391e57600080fd5b613929610140614405565b9050600061393984828501613a3f565b600083015250602061394d84828501613a3f565b602083015250604061396184828501613a2a565b6040830152506060613975848285016136d9565b6060830152506080613989848285016137c5565b60808301525060a082015167ffffffffffffffff8111156139a957600080fd5b6139b584828501613824565b60a08301525060c06139c984828501613a2a565b60c08301525060e06139dd84828501613a2a565b60e0830152506101006139f28482850161388d565b61010083015250610120613a08848285016136d9565b6101208301525092915050565b600081359050613a24816147e1565b92915050565b600081519050613a39816147e1565b92915050565b600081519050613a4e816147f8565b92915050565b600060208284031215613a6657600080fd5b6000613a74848285016136c4565b91505092915050565b600060208284031215613a8f57600080fd5b6000613a9d848285016136d9565b91505092915050565b60008060408385031215613ab957600080fd5b6000613ac7858286016136ee565b9250506020613ad8858286016136ee565b9150509250929050565b600060208284031215613af457600080fd5b600082015167ffffffffffffffff811115613b0e57600080fd5b613b1a84828501613703565b91505092915050565b600060208284031215613b3557600080fd5b6000613b4384828501613786565b91505092915050565b600060208284031215613b5e57600080fd5b6000613b6c848285016137b0565b91505092915050565b600080600080600080600060a0888a031215613b9057600080fd5b6000613b9e8a828b01613878565b9750506020613baf8a828b016136c4565b9650506040613bc08a828b0161379b565b955050606088013567ffffffffffffffff811115613bdd57600080fd5b613be98a828b016137da565b9450945050608088013567ffffffffffffffff811115613c0857600080fd5b613c148a828b016137da565b925092505092959891949750929550565b600080600080600080600080600060c08a8c031215613c4357600080fd5b6000613c518c828d01613878565b9950506020613c628c828d016136c4565b9850506040613c738c828d0161379b565b97505060608a013567ffffffffffffffff811115613c9057600080fd5b613c9c8c828d016137da565b965096505060808a013567ffffffffffffffff811115613cbb57600080fd5b613cc78c828d016137da565b945094505060a08a013567ffffffffffffffff811115613ce657600080fd5b613cf28c828d016137da565b92509250509295985092959850929598565b600060208284031215613d1657600080fd5b600082015167ffffffffffffffff811115613d3057600080fd5b613d3c848285016138b7565b91505092915050565b600060208284031215613d5757600080fd5b600082015167ffffffffffffffff811115613d7157600080fd5b613d7d8482850161390b565b91505092915050565b600060208284031215613d9857600080fd5b6000613da684828501613a2a565b91505092915050565b60008060408385031215613dc257600080fd5b6000613dd085828601613a15565b9250506020613de1858286016136c4565b9150509250929050565b60008060008060808587031215613e0157600080fd5b6000613e0f87828801613a2a565b9450506020613e20878288016138a2565b9350506040613e3187828801613a2a565b9250506060613e4287828801613a2a565b91505092959194509250565b6000613e5a8383613e75565b60208301905092915050565b613e6f816145fc565b82525050565b613e7e81614528565b82525050565b613e8d81614528565b82525050565b6000613e9e826144d2565b613ea881856144f5565b9350613eb3836144c2565b8060005b83811015613ee4578151613ecb8882613e4e565b9750613ed6836144e8565b925050600181019050613eb7565b5085935050505092915050565b613efa8161454c565b82525050565b613f0981614558565b82525050565b6000613f1b8385614506565b9350613f288385846146d4565b613f3183614718565b840190509392505050565b6000613f47826144dd565b613f518185614506565b9350613f618185602086016146e3565b613f6a81614718565b840191505092915050565b613f7e8161460e565b82525050565b613f8d81614632565b82525050565b613f9c81614656565b82525050565b613fab8161467a565b82525050565b613fba816145aa565b82525050565b613fc98161469e565b82525050565b6000613fdc601d83614517565b91507f41756374696f6e3a206f6e6c7920434641763120737570706f727465640000006000830152602082019050919050565b600061401c601b83614517565b91507f41756374696f6e3a206e6f7420616363657074656420746f6b656e00000000006000830152602082019050919050565b600061405c601e83614517565b91507f41756374696f6e3a20737570706f7274206f6e6c79206f6e6520686f737400006000830152602082019050919050565b614098816145e5565b82525050565b60006020820190506140b36000830184613e84565b92915050565b60006020820190506140ce6000830184613e66565b92915050565b60006040820190506140e96000830185613e66565b6140f66020830184613e84565b9392505050565b60006060820190506141126000830186613e66565b61411f6020830185613e84565b61412c604083018461408f565b949350505050565b60006040820190506141496000830185613e66565b614156602083018461408f565b9392505050565b60006040820190506141726000830185613e84565b61417f602083018461408f565b9392505050565b600060608201905061419b6000830186613e84565b6141a8602083018561408f565b6141b56040830184613e84565b949350505050565b60006080820190506141d26000830187613e84565b6141df602083018661408f565b6141ec6040830185613e66565b6141f96060830184613fc0565b95945050505050565b6000602082019050818103600083015261421d818486613f0f565b90509392505050565b600060208201905081810360008301526142408184613f3c565b905092915050565b600060208201905061425d6000830184613f75565b92915050565b60006020820190506142786000830184613f84565b92915050565b60006020820190506142936000830184613f93565b92915050565b60006040820190506142ae6000830185613f93565b6142bb6020830184613f00565b9392505050565b60006020820190506142d76000830184613fa2565b92915050565b600060208201905081810360008301526142f681613fcf565b9050919050565b600060208201905081810360008301526143168161400f565b9050919050565b600060208201905081810360008301526143368161404f565b9050919050565b6000602082019050614352600083018461408f565b92915050565b600060a08201905061436d600083018861408f565b61437a6020830187613fb1565b614387604083018661408f565b614394606083018561408f565b6143a16080830184613ef1565b9695505050505050565b600060a0820190506143c0600083018861408f565b6143cd602083018761408f565b81810360408301526143df8186613e93565b90506143ee6060830185613e84565b6143fb608083018461408f565b9695505050505050565b6000604051905081810181811067ffffffffffffffff8211171561442c5761442b614716565b5b8060405250919050565b600067ffffffffffffffff82111561445157614450614716565b5b602082029050602081019050919050565b600067ffffffffffffffff82111561447d5761447c614716565b5b601f19601f8301169050602081019050919050565b600067ffffffffffffffff8211156144ad576144ac614716565b5b601f19601f8301169050602081019050919050565b6000819050602082019050919050565b600081519050919050565b600081519050919050565b6000602082019050919050565b600082825260208201905092915050565b600082825260208201905092915050565b600082825260208201905092915050565b6000614533826145c5565b9050919050565b6000614545826145c5565b9050919050565b60008115159050919050565b6000819050919050565b60007fffffffff0000000000000000000000000000000000000000000000000000000082169050919050565b600061459982614528565b9050919050565b6000819050919050565b600081600b0b9050919050565b600061ffff82169050919050565b600073ffffffffffffffffffffffffffffffffffffffff82169050919050565b6000819050919050565b600060ff82169050919050565b6000614607826146b0565b9050919050565b600061461982614620565b9050919050565b600061462b826145c5565b9050919050565b600061463d82614644565b9050919050565b600061464f826145c5565b9050919050565b600061466182614668565b9050919050565b6000614673826145c5565b9050919050565b60006146858261468c565b9050919050565b6000614697826145c5565b9050919050565b60006146a9826145b7565b9050919050565b60006146bb826146c2565b9050919050565b60006146cd826145c5565b9050919050565b82818337600083830152505050565b60005b838110156147015780820151818401526020810190506146e6565b83811115614710576000848401525b50505050565bfe5b6000601f19601f8301169050919050565b61473281614528565b811461473d57600080fd5b50565b6147498161453a565b811461475457600080fd5b50565b6147608161454c565b811461476b57600080fd5b50565b61477781614558565b811461478257600080fd5b50565b61478e81614562565b811461479957600080fd5b50565b6147a58161458e565b81146147b057600080fd5b50565b6147bc816145a0565b81146147c757600080fd5b50565b6147d3816145aa565b81146147de57600080fd5b50565b6147ea816145e5565b81146147f557600080fd5b50565b614801816145ef565b811461480c57600080fd5b5056fe556e737570706f727465642063616c6c6261636b202d20204265666f72652041677265656d656e74205465726d696e61746564416464726573733a20696e73756666696369656e742062616c616e636520666f722063616c6c536166654d6174683a206d756c7469706c69636174696f6e206f766572666c6f77756e6465726c79696e67546f6b656e2062616c616e636520616674657220737761703a20556e737570706f727465642063616c6c6261636b202d204265666f72652041677265656d656e742075706461746564556e737570706f727465642063616c6c6261636b202d204265666f72652041677265656d656e7420437265617465645361666545524332303a204552433230206f7065726174696f6e20646964206e6f742073756363656564a26469706673582212205aaa81a9e32178a7c2ce8a18234a022f43d579f5f7daaf312125c5c53692a05e64736f6c63430007050033",
  "linkReferences": {},
  "deployedLinkReferences": {}
}