{
  "_format": "hh-sol-artifact-1",
  "contractName": "FlowRoller",
  "sourceName": "contracts/FlowRoller.sol",
  "abi": [
    {
      "inputs": [
        {
          "internalType": "contract ISuperfluid",
          "name": "host",
          "type": "address"
        },
        {
          "internalType": "contract IConstantFlowAgreementV1",
          "name": "cfa",
          "type": "address"
        },
        {
          "internalType": "contract ISuperToken",
          "name": "superToken",
          "type": "address"
        },
        {
          "internalType": "contract ERC20",
          "name": "outputToken",
          "type": "address"
        },
        {
          "internalType": "contract ILendingPoolAddressesProvider",
          "name": "aaveLendingPoolProvider",
          "type": "address"
        },
        {
          "internalType": "contract IUniswapV2Router02",
          "name": "uniswapRouter",
          "type": "address"
        }
      ],
      "stateMutability": "nonpayable",
      "type": "constructor"
    },
    {
      "inputs": [],
      "name": "_cfa",
      "outputs": [
        {
          "internalType": "contract IConstantFlowAgreementV1",
          "name": "",
          "type": "address"
        }
      ],
      "stateMutability": "view",
      "type": "function"
    },
    {
      "inputs": [],
      "name": "_depositBalance",
      "outputs": [],
      "stateMutability": "nonpayable",
      "type": "function"
    },
    {
      "inputs": [],
      "name": "_outputToken",
      "outputs": [
        {
          "internalType": "contract ERC20",
          "name": "",
          "type": "address"
        }
      ],
      "stateMutability": "view",
      "type": "function"
    },
    {
      "inputs": [],
      "name": "_superToken",
      "outputs": [
        {
          "internalType": "contract ISuperToken",
          "name": "",
          "type": "address"
        }
      ],
      "stateMutability": "view",
      "type": "function"
    },
    {
      "inputs": [],
      "name": "_uniswapRouter",
      "outputs": [
        {
          "internalType": "contract IUniswapV2Router02",
          "name": "",
          "type": "address"
        }
      ],
      "stateMutability": "view",
      "type": "function"
    },
    {
      "inputs": [],
      "name": "_withdraw",
      "outputs": [
        {
          "internalType": "uint256",
          "name": "withdrawn",
          "type": "uint256"
        }
      ],
      "stateMutability": "nonpayable",
      "type": "function"
    },
    {
      "inputs": [
        {
          "internalType": "contract ISuperToken",
          "name": "superToken",
          "type": "address"
        },
        {
          "internalType": "address",
          "name": "agreementClass",
          "type": "address"
        },
        {
          "internalType": "bytes32",
          "name": "agreementId",
          "type": "bytes32"
        },
        {
          "internalType": "bytes",
          "name": "agreementData",
          "type": "bytes"
        },
        {
          "internalType": "bytes",
          "name": "",
          "type": "bytes"
        },
        {
          "internalType": "bytes",
          "name": "ctx",
          "type": "bytes"
        }
      ],
      "name": "afterAgreementCreated",
      "outputs": [
        {
          "internalType": "bytes",
          "name": "newCtx",
          "type": "bytes"
        }
      ],
      "stateMutability": "nonpayable",
      "type": "function"
    },
    {
      "inputs": [
        {
          "internalType": "contract ISuperToken",
          "name": "superToken",
          "type": "address"
        },
        {
          "internalType": "address",
          "name": "agreementClass",
          "type": "address"
        },
        {
          "internalType": "bytes32",
          "name": "agreementId",
          "type": "bytes32"
        },
        {
          "internalType": "bytes",
          "name": "agreementData",
          "type": "bytes"
        },
        {
          "internalType": "bytes",
          "name": "",
          "type": "bytes"
        },
        {
          "internalType": "bytes",
          "name": "ctx",
          "type": "bytes"
        }
      ],
      "name": "afterAgreementTerminated",
      "outputs": [
        {
          "internalType": "bytes",
          "name": "newCtx",
          "type": "bytes"
        }
      ],
      "stateMutability": "nonpayable",
      "type": "function"
    },
    {
      "inputs": [
        {
          "internalType": "contract ISuperToken",
          "name": "superToken",
          "type": "address"
        },
        {
          "internalType": "address",
          "name": "agreementClass",
          "type": "address"
        },
        {
          "internalType": "bytes32",
          "name": "agreementId",
          "type": "bytes32"
        },
        {
          "internalType": "bytes",
          "name": "agreementData",
          "type": "bytes"
        },
        {
          "internalType": "bytes",
          "name": "",
          "type": "bytes"
        },
        {
          "internalType": "bytes",
          "name": "ctx",
          "type": "bytes"
        }
      ],
      "name": "afterAgreementUpdated",
      "outputs": [
        {
          "internalType": "bytes",
          "name": "newCtx",
          "type": "bytes"
        }
      ],
      "stateMutability": "nonpayable",
      "type": "function"
    },
    {
      "inputs": [
        {
          "internalType": "contract ISuperToken",
          "name": "",
          "type": "address"
        },
        {
          "internalType": "address",
          "name": "",
          "type": "address"
        },
        {
          "internalType": "bytes32",
          "name": "",
          "type": "bytes32"
        },
        {
          "internalType": "bytes",
          "name": "",
          "type": "bytes"
        },
        {
          "internalType": "bytes",
          "name": "",
          "type": "bytes"
        }
      ],
      "name": "beforeAgreementCreated",
      "outputs": [
        {
          "internalType": "bytes",
          "name": "",
          "type": "bytes"
        }
      ],
      "stateMutability": "view",
      "type": "function"
    },
    {
      "inputs": [
        {
          "internalType": "contract ISuperToken",
          "name": "",
          "type": "address"
        },
        {
          "internalType": "address",
          "name": "",
          "type": "address"
        },
        {
          "internalType": "bytes32",
          "name": "",
          "type": "bytes32"
        },
        {
          "internalType": "bytes",
          "name": "",
          "type": "bytes"
        },
        {
          "internalType": "bytes",
          "name": "",
          "type": "bytes"
        }
      ],
      "name": "beforeAgreementTerminated",
      "outputs": [
        {
          "internalType": "bytes",
          "name": "",
          "type": "bytes"
        }
      ],
      "stateMutability": "view",
      "type": "function"
    },
    {
      "inputs": [
        {
          "internalType": "contract ISuperToken",
          "name": "",
          "type": "address"
        },
        {
          "internalType": "address",
          "name": "",
          "type": "address"
        },
        {
          "internalType": "bytes32",
          "name": "",
          "type": "bytes32"
        },
        {
          "internalType": "bytes",
          "name": "",
          "type": "bytes"
        },
        {
          "internalType": "bytes",
          "name": "",
          "type": "bytes"
        }
      ],
      "name": "beforeAgreementUpdated",
      "outputs": [
        {
          "internalType": "bytes",
          "name": "",
          "type": "bytes"
        }
      ],
      "stateMutability": "view",
      "type": "function"
    },
    {
      "inputs": [
        {
          "internalType": "address",
          "name": "",
          "type": "address"
        }
      ],
      "name": "savers",
      "outputs": [
        {
          "internalType": "uint256",
          "name": "timestamp",
          "type": "uint256"
        },
        {
          "internalType": "int96",
          "name": "flowRate",
          "type": "int96"
        },
        {
          "internalType": "uint256",
          "name": "prevAccumulatedBalance",
          "type": "uint256"
        },
        {
          "internalType": "bool",
          "name": "isTerminated",
          "type": "bool"
        }
      ],
      "stateMutability": "view",
      "type": "function"
    }
  ],
  "bytecode": "0x6101006040523480156200001257600080fd5b50604051620048ef380380620048ef833981810160405281019062000038919062000518565b600073ffffffffffffffffffffffffffffffffffffffff168673ffffffffffffffffffffffffffffffffffffffff161415620000ab576040517f08c379a0000000000000000000000000000000000000000000000000000000008152600401620000a29062000795565b60405180910390fd5b600073ffffffffffffffffffffffffffffffffffffffff168573ffffffffffffffffffffffffffffffffffffffff1614156200011e576040517f08c379a000000000000000000000000000000000000000000000000000000000815260040162000115906200072f565b60405180910390fd5b600073ffffffffffffffffffffffffffffffffffffffff168473ffffffffffffffffffffffffffffffffffffffff16141562000191576040517f08c379a0000000000000000000000000000000000000000000000000000000008152600401620001889062000773565b60405180910390fd5b600073ffffffffffffffffffffffffffffffffffffffff168273ffffffffffffffffffffffffffffffffffffffff16141562000204576040517f08c379a0000000000000000000000000000000000000000000000000000000008152600401620001fb9062000751565b60405180910390fd5b600073ffffffffffffffffffffffffffffffffffffffff168173ffffffffffffffffffffffffffffffffffffffff16141562000277576040517f08c379a00000000000000000000000000000000000000000000000000000000081526004016200026e90620007b7565b60405180910390fd5b85600160006101000a81548173ffffffffffffffffffffffffffffffffffffffff021916908373ffffffffffffffffffffffffffffffffffffffff1602179055508473ffffffffffffffffffffffffffffffffffffffff1660808173ffffffffffffffffffffffffffffffffffffffff1660601b815250508373ffffffffffffffffffffffffffffffffffffffff1660a08173ffffffffffffffffffffffffffffffffffffffff1660601b8152505081600260006101000a81548173ffffffffffffffffffffffffffffffffffffffff021916908373ffffffffffffffffffffffffffffffffffffffff1602179055508073ffffffffffffffffffffffffffffffffffffffff1660e08173ffffffffffffffffffffffffffffffffffffffff1660601b815250508273ffffffffffffffffffffffffffffffffffffffff1660c08173ffffffffffffffffffffffffffffffffffffffff1660601b81525050600064100000000064040000000064010000000060011717179050600160009054906101000a900473ffffffffffffffffffffffffffffffffffffffff1673ffffffffffffffffffffffffffffffffffffffff1663ad3915c8826040518263ffffffff1660e01b81526004016200044d9190620007d9565b600060405180830381600087803b1580156200046857600080fd5b505af11580156200047d573d6000803e3d6000fd5b505050505050505050505062000959565b6000815190506200049f81620008bd565b92915050565b600081519050620004b681620008d7565b92915050565b600081519050620004cd81620008f1565b92915050565b600081519050620004e4816200090b565b92915050565b600081519050620004fb8162000925565b92915050565b60008151905062000512816200093f565b92915050565b60008060008060008060c087890312156200053257600080fd5b60006200054289828a01620004ea565b96505060206200055589828a01620004a5565b95505060406200056889828a01620004d3565b94505060606200057b89828a016200048e565b93505060806200058e89828a01620004bc565b92505060a0620005a189828a0162000501565b9150509295509295509295565b6000620005bd601583620007f6565b91507f41756374696f6e3a2063666120697320656d70747900000000000000000000006000830152602082019050919050565b6000620005ff602983620007f6565b91507f41756374696f6e3a20616176654c656e64696e67506f6f6c50726f766964657260008301527f20697320656d70747900000000000000000000000000000000000000000000006020830152604082019050919050565b600062000667601c83620007f6565b91507f41756374696f6e3a207375706572546f6b656e20697320656d707479000000006000830152602082019050919050565b6000620006a9601683620007f6565b91507f41756374696f6e3a20686f737420697320656d707479000000000000000000006000830152602082019050919050565b6000620006eb601f83620007f6565b91507f41756374696f6e3a20756e6973776170526f7574657220697320656d707479006000830152602082019050919050565b6200072981620008b3565b82525050565b600060208201905081810360008301526200074a81620005ae565b9050919050565b600060208201905081810360008301526200076c81620005f0565b9050919050565b600060208201905081810360008301526200078e8162000658565b9050919050565b60006020820190508181036000830152620007b0816200069a565b9050919050565b60006020820190508181036000830152620007d281620006dc565b9050919050565b6000602082019050620007f060008301846200071e565b92915050565b600082825260208201905092915050565b6000620008148262000893565b9050919050565b6000620008288262000807565b9050919050565b60006200083c8262000807565b9050919050565b6000620008508262000807565b9050919050565b6000620008648262000807565b9050919050565b6000620008788262000807565b9050919050565b60006200088c8262000807565b9050919050565b600073ffffffffffffffffffffffffffffffffffffffff82169050919050565b6000819050919050565b620008c8816200081b565b8114620008d457600080fd5b50565b620008e2816200082f565b8114620008ee57600080fd5b50565b620008fc8162000843565b81146200090857600080fd5b50565b620009168162000857565b81146200092257600080fd5b50565b62000930816200086b565b81146200093c57600080fd5b50565b6200094a816200087f565b81146200095657600080fd5b50565b60805160601c60a05160601c60c05160601c60e05160601c613f04620009eb60003980610625528061208f528061211852806122cb525080610bda5280610c4f5280610dea5280610f315280611042528061112752508061081352806108bd52806109a4528061122752806113cd528061166f528061244d525080610649528061163352806124115250613f046000f3fe608060405234801561001057600080fd5b50600436106100cf5760003560e01c80637cb4d6d71161008c5780639b50a2c4116100665780639b50a2c41461023d578063c10eb14d1461025b578063c8b53aef14610279578063d86ed3e514610297576100cf565b80637cb4d6d7146101e5578063884d1f40146102035780639a730aff14610233576100cf565b8063230dbd29146100d457806330d9c9151461010457806353c11f99146101345780635c63cacb146101645780635f9e7d771461019757806365b61b77146101c7575b600080fd5b6100ee60048036038101906100e991906132d0565b6102c7565b6040516100fb91906137f1565b60405180910390f35b61011e60048036038101906101199190613220565b610447565b60405161012b91906137f1565b60405180910390f35b61014e600480360381019061014991906132d0565b61049a565b60405161015b91906137f1565b60405180910390f35b61017e600480360381019061017991906130ff565b610586565b60405161018e9493929190613923565b60405180910390f35b6101b160048036038101906101ac9190613220565b6105d0565b6040516101be91906137f1565b60405180910390f35b6101cf610623565b6040516101dc919061388d565b60405180910390f35b6101ed610647565b6040516101fa919061382e565b60405180910390f35b61021d60048036038101906102189190613220565b61066b565b60405161022a91906137f1565b60405180910390f35b61023b6106be565b005b610245611040565b6040516102529190613813565b60405180910390f35b610263611064565b6040516102709190613908565b60405180910390f35b610281611225565b60405161028e9190613849565b60405180910390f35b6102b160048036038101906102ac91906132d0565b611249565b6040516102be91906137f1565b60405180910390f35b6060600160009054906101000a900473ffffffffffffffffffffffffffffffffffffffff1673ffffffffffffffffffffffffffffffffffffffff163373ffffffffffffffffffffffffffffffffffffffff1614610359576040517f08c379a0000000000000000000000000000000000000000000000000000000008152600401610350906138e8565b60405180910390fd5b8989610364826113c9565b6103a3576040517f08c379a000000000000000000000000000000000000000000000000000000000815260040161039a906138c8565b60405180910390fd5b6103ac81611421565b6103eb576040517f08c379a00000000000000000000000000000000000000000000000000000000081526004016103e2906138a8565b60405180910390fd5b6104296040518060400160405280601c81526020017f616674657241677265656d656e74557064617465642063616c6c6564000000008152506114ca565b61043685858b8b8e6115c8565b925050509998505050505050505050565b60606040517f08c379a000000000000000000000000000000000000000000000000000000000815260040180806020018281038252602f815260200180613e76602f913960400191505060405180910390fd5b6060600160009054906101000a900473ffffffffffffffffffffffffffffffffffffffff1673ffffffffffffffffffffffffffffffffffffffff163373ffffffffffffffffffffffffffffffffffffffff161461052c576040517f08c379a0000000000000000000000000000000000000000000000000000000008152600401610523906138e8565b60405180910390fd5b61056a6040518060400160405280601f81526020017f616674657241677265656d656e745465726d696e617465642063616c6c6564008152506114ca565b610577838389898c6115c8565b90509998505050505050505050565b60006020528060005260406000206000915090508060000154908060010160009054906101000a9004600b0b908060020154908060030160009054906101000a900460ff16905084565b60606040517f08c379a0000000000000000000000000000000000000000000000000000000008152600401808060200182810382526033815260200180613dcd6033913960400191505060405180910390fd5b7f000000000000000000000000000000000000000000000000000000000000000081565b7f000000000000000000000000000000000000000000000000000000000000000081565b60606040517f08c379a000000000000000000000000000000000000000000000000000000000815260040180806020018281038252602f815260200180613e47602f913960400191505060405180910390fd5b60004290506107016040518060400160405280600c81526020017f6d73672e73656e6465723a2000000000000000000000000000000000000000008152506114ca565b61070a33611a5d565b60006107163383611b0c565b90506107566040518060400160405280601581526020017f62616c616e63654174436865636b706f696e743a2000000000000000000000008152506114ca565b61075f81611c37565b600081905060007fffffffffffffffffffffffffffffffffffffffffffffffffffffffffffffffff90506107c76040518060400160405280600881526020017f616d6f756e743a200000000000000000000000000000000000000000000000008152506114ca565b6107d081611cd0565b61080e6040518060400160405280601481526020017f5f7375706572546f6b656e2073796d626f6c3a200000000000000000000000008152506114ca565b6108b97f000000000000000000000000000000000000000000000000000000000000000073ffffffffffffffffffffffffffffffffffffffff166306fdde036040518163ffffffff1660e01b815260040160006040518083038186803b15801561087757600080fd5b505afa15801561088b573d6000803e3d6000fd5b505050506040513d6000823e3d601f19601f820116820180604052508101906108b491906133af565b6114ca565b60007f000000000000000000000000000000000000000000000000000000000000000073ffffffffffffffffffffffffffffffffffffffff1663ee719bc86040518163ffffffff1660e01b815260040160206040518083038186803b15801561092157600080fd5b505afa158015610935573d6000803e3d6000fd5b505050506040513d601f19601f820116820180604052508101906109599190613128565b90506109996040518060400160405280601181526020017f756e6465726c79696e67546f6b656e3a200000000000000000000000000000008152506114ca565b6109a281611d69565b7f000000000000000000000000000000000000000000000000000000000000000073ffffffffffffffffffffffffffffffffffffffff166311bcc81e846040518263ffffffff1660e01b81526004016109fb9190613908565b600060405180830381600087803b158015610a1557600080fd5b505af1158015610a29573d6000803e3d6000fd5b50505050610a6b6040518060400160405280601181526020017f616d6f756e74546f4465706f7369743a200000000000000000000000000000008152506114ca565b610a7483611c37565b60008173ffffffffffffffffffffffffffffffffffffffff166370a08231306040518263ffffffff1660e01b8152600401610aaf919061370d565b60206040518083038186803b158015610ac757600080fd5b505afa158015610adb573d6000803e3d6000fd5b505050506040513d601f19601f82011682018060405250810190610aff9190613431565b9050610b3f6040518060400160405280601981526020017f756e6465726c79696e67546f6b656e2062616c616e63653a20000000000000008152506114ca565b610b4881611c37565b6000610b70610b6160c887611e1890919063ffffffff16565b86611ea190919063ffffffff16565b90506000610b896104b042611f2490919063ffffffff16565b9050610bc96040518060400160405280600e81526020017f6d696e5472616465416d6f756e740000000000000000000000000000000000008152506114ca565b610bd282611c37565b6000610c02857f0000000000000000000000000000000000000000000000000000000000000000308a8787611fac565b9050610c426040518060400160405280601081526020017f737761704f7574707574416d6f756e74000000000000000000000000000000008152506114ca565b610c4b81611c37565b60007f000000000000000000000000000000000000000000000000000000000000000073ffffffffffffffffffffffffffffffffffffffff166370a08231306040518263ffffffff1660e01b8152600401610ca6919061370d565b60206040518083038186803b158015610cbe57600080fd5b505afa158015610cd2573d6000803e3d6000fd5b505050506040513d601f19601f82011682018060405250810190610cf69190613431565b9050610d366040518060400160405280601281526020017f6f7574707574546f6b656e42616c616e636500000000000000000000000000008152506114ca565b610d3f81611c37565b6000600260009054906101000a900473ffffffffffffffffffffffffffffffffffffffff16905060008173ffffffffffffffffffffffffffffffffffffffff16630261bf8b6040518163ffffffff1660e01b815260040160206040518083038186803b158015610dae57600080fd5b505afa158015610dc2573d6000803e3d6000fd5b505050506040513d601f19601f82011682018060405250810190610de69190613128565b90507f000000000000000000000000000000000000000000000000000000000000000073ffffffffffffffffffffffffffffffffffffffff1663095ea7b38373ffffffffffffffffffffffffffffffffffffffff16630261bf8b6040518163ffffffff1660e01b815260040160206040518083038186803b158015610e6a57600080fd5b505afa158015610e7e573d6000803e3d6000fd5b505050506040513d601f19601f82011682018060405250810190610ea29190613128565b866040518363ffffffff1660e01b8152600401610ec0929190613728565b602060405180830381600087803b158015610eda57600080fd5b505af1158015610eee573d6000803e3d6000fd5b505050506040513d601f19601f82011682018060405250810190610f1291906131ce565b508073ffffffffffffffffffffffffffffffffffffffff1663e8eda9df7f0000000000000000000000000000000000000000000000000000000000000000863360006040518563ffffffff1660e01b8152600401610f739493929190613788565b600060405180830381600087803b158015610f8d57600080fd5b505af1158015610fa1573d6000803e3d6000fd5b505050508b6000803373ffffffffffffffffffffffffffffffffffffffff1673ffffffffffffffffffffffffffffffffffffffff1681526020019081526020016000206000018190555060008060003373ffffffffffffffffffffffffffffffffffffffff1673ffffffffffffffffffffffffffffffffffffffff16815260200190815260200160002060020181905550505050505050505050505050565b7f000000000000000000000000000000000000000000000000000000000000000081565b600080600260009054906101000a900473ffffffffffffffffffffffffffffffffffffffff1673ffffffffffffffffffffffffffffffffffffffff16630261bf8b6040518163ffffffff1660e01b815260040160206040518083038186803b1580156110cf57600080fd5b505afa1580156110e3573d6000803e3d6000fd5b505050506040513d601f19601f820116820180604052508101906111079190613128565b90508073ffffffffffffffffffffffffffffffffffffffff166369328dec7f00000000000000000000000000000000000000000000000000000000000000007fffffffffffffffffffffffffffffffffffffffffffffffffffffffffffffffff336040518463ffffffff1660e01b815260040161118693929190613751565b602060405180830381600087803b1580156111a057600080fd5b505af11580156111b4573d6000803e3d6000fd5b505050506040513d601f19601f820116820180604052508101906111d89190613431565b91506112186040518060400160405280600981526020017f77697468647261776e00000000000000000000000000000000000000000000008152506114ca565b61122182611c37565b5090565b7f000000000000000000000000000000000000000000000000000000000000000081565b6060600160009054906101000a900473ffffffffffffffffffffffffffffffffffffffff1673ffffffffffffffffffffffffffffffffffffffff163373ffffffffffffffffffffffffffffffffffffffff16146112db576040517f08c379a00000000000000000000000000000000000000000000000000000000081526004016112d2906138e8565b60405180910390fd5b89896112e6826113c9565b611325576040517f08c379a000000000000000000000000000000000000000000000000000000000815260040161131c906138c8565b60405180910390fd5b61132e81611421565b61136d576040517f08c379a0000000000000000000000000000000000000000000000000000000008152600401611364906138a8565b60405180910390fd5b6113ab6040518060400160405280601c81526020017f616674657241677265656d656e74437265617465642063616c6c6564000000008152506114ca565b6113b885858b8b8e6123a6565b925050509998505050505050505050565b60007f000000000000000000000000000000000000000000000000000000000000000073ffffffffffffffffffffffffffffffffffffffff168273ffffffffffffffffffffffffffffffffffffffff16149050919050565b60007fa9214cc96615e0085d3bb077758db69497dc2dce3b2b1e97bc93c3d18d83efd38273ffffffffffffffffffffffffffffffffffffffff16637730599e6040518163ffffffff1660e01b815260040160206040518083038186803b15801561148a57600080fd5b505afa15801561149e573d6000803e3d6000fd5b505050506040513d601f19601f820116820180604052508101906114c291906131f7565b149050919050565b6115c5816040516024018080602001828103825283818151815260200191508051906020019080838360005b838110156115115780820151818401526020810190506114f6565b50505050905090810190601f16801561153e5780820380516001836020036101000a031916815260200191505b50925050506040516020818303038152906040527f41304fac000000000000000000000000000000000000000000000000000000007bffffffffffffffffffffffffffffffffffffffffffffffffffffffff19166020820180517bffffffffffffffffffffffffffffffffffffffffffffffffffffffff8381831617835250505050612690565b50565b606085858080601f016020809104026020016040519081016040528093929190818152602001838380828437600081840152601f19601f82011690508083019250505050505050905061161a826126b9565b6000848481019061162b9190613151565b5090506000807f000000000000000000000000000000000000000000000000000000000000000073ffffffffffffffffffffffffffffffffffffffff1663aabd26687f0000000000000000000000000000000000000000000000000000000000000000876040518363ffffffff1660e01b81526004016116ac929190613864565b60806040518083038186803b1580156116c457600080fd5b505afa1580156116d8573d6000803e3d6000fd5b505050506040513d601f19601f820116820180604052508101906116fc919061345a565b505091509150600081600b0b141561186b5761174c6040518060400160405280601081526020017f64656c6574696e6720666c6f772e2e2e000000000000000000000000000000008152506114ca565b60016000808573ffffffffffffffffffffffffffffffffffffffff1673ffffffffffffffffffffffffffffffffffffffff16815260200190815260200160002060030160006101000a81548160ff0219169083151502179055506117ae612ce0565b600160009054906101000a900473ffffffffffffffffffffffffffffffffffffffff1673ffffffffffffffffffffffffffffffffffffffff16633f6c923a8b8b6040518363ffffffff1660e01b815260040161180b9291906137cd565b60006040518083038186803b15801561182357600080fd5b505afa158015611837573d6000803e3d6000fd5b505050506040513d6000823e3d601f19601f8201168201806040525081019061186091906133f0565b905080604001519250505b6118a96040518060400160405280601081526020017f7570646174656454696d657374616d70000000000000000000000000000000008152506114ca565b6118b282611c37565b6118f06040518060400160405280600f81526020017f75706461746564466c6f775261746500000000000000000000000000000000008152506114ca565b6118fc81600b0b611cd0565b60006119088484611b0c565b90506119486040518060400160405280601681526020017f70726576416363756d756c6174656442616c616e6365000000000000000000008152506114ca565b61195181611c37565b806000808673ffffffffffffffffffffffffffffffffffffffff1673ffffffffffffffffffffffffffffffffffffffff16815260200190815260200160002060020181905550826000808673ffffffffffffffffffffffffffffffffffffffff1673ffffffffffffffffffffffffffffffffffffffff16815260200190815260200160002060000181905550816000808673ffffffffffffffffffffffffffffffffffffffff1673ffffffffffffffffffffffffffffffffffffffff16815260200190815260200160002060010160006101000a8154816bffffffffffffffffffffffff0219169083600b0b6bffffffffffffffffffffffff1602179055505050505095945050505050565b611b0981604051602401808273ffffffffffffffffffffffffffffffffffffffff1681526020019150506040516020818303038152906040527f2c2ecbc2000000000000000000000000000000000000000000000000000000007bffffffffffffffffffffffffffffffffffffffffffffffffffffffff19166020820180517bffffffffffffffffffffffffffffffffffffffffffffffffffffffff8381831617835250505050612690565b50565b6000806000808573ffffffffffffffffffffffffffffffffffffffff1673ffffffffffffffffffffffffffffffffffffffff16815260200190815260200160002060010160009054906101000a9004600b0b905060008060008673ffffffffffffffffffffffffffffffffffffffff1673ffffffffffffffffffffffffffffffffffffffff1681526020019081526020016000206000015490506000611bbb8286611ea190919063ffffffff16565b90506000611c28611bd885600b0b8461275290919063ffffffff16565b6000808a73ffffffffffffffffffffffffffffffffffffffff1673ffffffffffffffffffffffffffffffffffffffff16815260200190815260200160002060020154611f2490919063ffffffff16565b90508094505050505092915050565b611ccd81604051602401808281526020019150506040516020818303038152906040527ff5b1bba9000000000000000000000000000000000000000000000000000000007bffffffffffffffffffffffffffffffffffffffffffffffffffffffff19166020820180517bffffffffffffffffffffffffffffffffffffffffffffffffffffffff8381831617835250505050612690565b50565b611d6681604051602401808281526020019150506040516020818303038152906040527f4e0c1d1d000000000000000000000000000000000000000000000000000000007bffffffffffffffffffffffffffffffffffffffffffffffffffffffff19166020820180517bffffffffffffffffffffffffffffffffffffffffffffffffffffffff8381831617835250505050612690565b50565b611e1581604051602401808273ffffffffffffffffffffffffffffffffffffffff1681526020019150506040516020818303038152906040527f2c2ecbc2000000000000000000000000000000000000000000000000000000007bffffffffffffffffffffffffffffffffffffffffffffffffffffffff19166020820180517bffffffffffffffffffffffffffffffffffffffffffffffffffffffff8381831617835250505050612690565b50565b6000808211611e8f576040517f08c379a000000000000000000000000000000000000000000000000000000000815260040180806020018281038252601a8152602001807f536166654d6174683a206469766973696f6e206279207a65726f00000000000081525060200191505060405180910390fd5b818381611e9857fe5b04905092915050565b600082821115611f19576040517f08c379a000000000000000000000000000000000000000000000000000000000815260040180806020018281038252601e8152602001807f536166654d6174683a207375627472616374696f6e206f766572666c6f77000081525060200191505060405180910390fd5b818303905092915050565b600080828401905083811015611fa2576040517f08c379a000000000000000000000000000000000000000000000000000000000815260040180806020018281038252601b8152602001807f536166654d6174683a206164646974696f6e206f766572666c6f77000000000081525060200191505060405180910390fd5b8091505092915050565b60006060600267ffffffffffffffff81118015611fc857600080fd5b50604051908082528060200260200182016040528015611ff75781602001602082028036833780820191505090505b509050878160008151811061200857fe5b602002602001019073ffffffffffffffffffffffffffffffffffffffff16908173ffffffffffffffffffffffffffffffffffffffff1681525050868160018151811061205057fe5b602002602001019073ffffffffffffffffffffffffffffffffffffffff16908173ffffffffffffffffffffffffffffffffffffffff16815250506120d57f0000000000000000000000000000000000000000000000000000000000000000868a73ffffffffffffffffffffffffffffffffffffffff166127d89092919063ffffffff16565b6121136040518060400160405280600e81526020017f5f756e6973776170526f757465720000000000000000000000000000000000008152506114ca565b61213c7f0000000000000000000000000000000000000000000000000000000000000000611d69565b61217a6040518060400160405280600681526020017f616d6f756e7400000000000000000000000000000000000000000000000000008152506114ca565b61218385611c37565b6121c16040518060400160405280600781526020017f706174685b305d000000000000000000000000000000000000000000000000008152506114ca565b6121de816000815181106121d157fe5b6020026020010151611d69565b61221c6040518060400160405280600781526020017f706174685b315d000000000000000000000000000000000000000000000000008152506114ca565b6122398160018151811061222c57fe5b6020026020010151611d69565b6122776040518060400160405280600f81526020017f626c6f636b2e74696d657374616d7000000000000000000000000000000000008152506114ca565b61228042611c37565b6122be6040518060400160405280600881526020017f646561646c696e650000000000000000000000000000000000000000000000008152506114ca565b6122c783611c37565b60607f000000000000000000000000000000000000000000000000000000000000000073ffffffffffffffffffffffffffffffffffffffff166338ed17398787858b896040518663ffffffff1660e01b815260040161232a959493929190613968565b600060405180830381600087803b15801561234457600080fd5b505af1158015612358573d6000803e3d6000fd5b505050506040513d6000823e3d601f19601f82011682018060405250810190612381919061318d565b90508060018151811061239057fe5b6020026020010151925050509695505050505050565b606085858080601f016020809104026020016040519081016040528093929190818152602001838380828437600081840152601f19601f8201169050808301925050505050505090506123f8826126b9565b600084848101906124099190613151565b5090506000807f000000000000000000000000000000000000000000000000000000000000000073ffffffffffffffffffffffffffffffffffffffff1663aabd26687f0000000000000000000000000000000000000000000000000000000000000000876040518363ffffffff1660e01b815260040161248a929190613864565b60806040518083038186803b1580156124a257600080fd5b505afa1580156124b6573d6000803e3d6000fd5b505050506040513d601f19601f820116820180604052508101906124da919061345a565b50509150915061251e6040518060400160405280601081526020017f7570646174656454696d657374616d70000000000000000000000000000000008152506114ca565b61252782611c37565b6125656040518060400160405280600f81526020017f75706461746564466c6f775261746500000000000000000000000000000000008152506114ca565b61257181600b0b611cd0565b816000808573ffffffffffffffffffffffffffffffffffffffff1673ffffffffffffffffffffffffffffffffffffffff16815260200190815260200160002060000181905550806000808573ffffffffffffffffffffffffffffffffffffffff1673ffffffffffffffffffffffffffffffffffffffff16815260200190815260200160002060010160006101000a8154816bffffffffffffffffffffffff0219169083600b0b6bffffffffffffffffffffffff16021790555060008060008573ffffffffffffffffffffffffffffffffffffffff1673ffffffffffffffffffffffffffffffffffffffff16815260200190815260200160002060030160006101000a81548160ff02191690831515021790555050505095945050505050565b60008151905060006a636f6e736f6c652e6c6f679050602083016000808483855afa5050505050565b61274f81604051602401808281526020019150506040516020818303038152906040527f27b7cf85000000000000000000000000000000000000000000000000000000007bffffffffffffffffffffffffffffffffffffffffffffffffffffffff19166020820180517bffffffffffffffffffffffffffffffffffffffffffffffffffffffff8381831617835250505050612690565b50565b60008083141561276557600090506127d2565b600082840290508284828161277657fe5b04146127cd576040517f08c379a0000000000000000000000000000000000000000000000000000000008152600401808060200182810382526021815260200180613e266021913960400191505060405180910390fd5b809150505b92915050565b60006128ac828573ffffffffffffffffffffffffffffffffffffffff1663dd62ed3e30876040518363ffffffff1660e01b8152600401808373ffffffffffffffffffffffffffffffffffffffff1681526020018273ffffffffffffffffffffffffffffffffffffffff1681526020019250505060206040518083038186803b15801561286357600080fd5b505afa158015612877573d6000803e3d6000fd5b505050506040513d602081101561288d57600080fd5b8101908080519060200190929190505050611f2490919063ffffffff16565b905061294b8463095ea7b360e01b8584604051602401808373ffffffffffffffffffffffffffffffffffffffff16815260200182815260200192505050604051602081830303815290604052907bffffffffffffffffffffffffffffffffffffffffffffffffffffffff19166020820180517bffffffffffffffffffffffffffffffffffffffffffffffffffffffff8381831617835250505050612951565b50505050565b60606129b3826040518060400160405280602081526020017f5361666545524332303a206c6f772d6c6576656c2063616c6c206661696c65648152508573ffffffffffffffffffffffffffffffffffffffff16612a409092919063ffffffff16565b9050600081511115612a3b578080602001905160208110156129d457600080fd5b8101908080519060200190929190505050612a3a576040517f08c379a000000000000000000000000000000000000000000000000000000000815260040180806020018281038252602a815260200180613ea5602a913960400191505060405180910390fd5b5b505050565b6060612a4f8484600085612a58565b90509392505050565b606082471015612ab3576040517f08c379a0000000000000000000000000000000000000000000000000000000008152600401808060200182810382526026815260200180613e006026913960400191505060405180910390fd5b612abc85612c01565b612b2e576040517f08c379a000000000000000000000000000000000000000000000000000000000815260040180806020018281038252601d8152602001807f416464726573733a2063616c6c20746f206e6f6e2d636f6e747261637400000081525060200191505060405180910390fd5b600060608673ffffffffffffffffffffffffffffffffffffffff1685876040518082805190602001908083835b60208310612b7e5780518252602082019150602081019050602083039250612b5b565b6001836020036101000a03801982511681845116808217855250505050505090500191505060006040518083038185875af1925050503d8060008114612be0576040519150601f19603f3d011682016040523d82523d6000602084013e612be5565b606091505b5091509150612bf5828286612c14565b92505050949350505050565b600080823b905060008111915050919050565b60608315612c2457829050612cd9565b600083511115612c375782518084602001fd5b816040517f08c379a00000000000000000000000000000000000000000000000000000000081526004018080602001828103825283818151815260200191508051906020019080838360005b83811015612c9e578082015181840152602081019050612c83565b50505050905090810190601f168015612ccb5780820380516001836020036101000a031916815260200191505b509250505060405180910390fd5b9392505050565b604051806101400160405280600060ff168152602001600060ff16815260200160008152602001600073ffffffffffffffffffffffffffffffffffffffff16815260200160007bffffffffffffffffffffffffffffffffffffffffffffffffffffffff1916815260200160608152602001600081526020016000815260200160008152602001600073ffffffffffffffffffffffffffffffffffffffff1681525090565b600081359050612d9381613ce6565b92915050565b600081519050612da881613ce6565b92915050565b600081359050612dbd81613cfd565b92915050565b600082601f830112612dd457600080fd5b8151612de7612de2826139f3565b6139c2565b91508181835260208401935060208101905083856020840282011115612e0c57600080fd5b60005b83811015612e3c5781612e2288826130d5565b845260208401935060208301925050600181019050612e0f565b5050505092915050565b600081519050612e5581613d14565b92915050565b600081359050612e6a81613d2b565b92915050565b600081519050612e7f81613d2b565b92915050565b600081519050612e9481613d42565b92915050565b60008083601f840112612eac57600080fd5b8235905067ffffffffffffffff811115612ec557600080fd5b602083019150836001820283011115612edd57600080fd5b9250929050565b600082601f830112612ef557600080fd5b8151612f08612f0382613a1f565b6139c2565b91508082526020830160208301858383011115612f2457600080fd5b612f2f838284613ca0565b50505092915050565b600081359050612f4781613d59565b92915050565b600081519050612f5c81613d70565b92915050565b600081519050612f7181613d87565b92915050565b600082601f830112612f8857600080fd5b8151612f9b612f9682613a4f565b6139c2565b91508082526020830160208301858383011115612fb757600080fd5b612fc2838284613ca0565b50505092915050565b60006101408284031215612fde57600080fd5b612fe96101406139c2565b90506000612ff9848285016130ea565b600083015250602061300d848285016130ea565b6020830152506040613021848285016130d5565b604083015250606061303584828501612d99565b606083015250608061304984828501612e85565b60808301525060a082015167ffffffffffffffff81111561306957600080fd5b61307584828501612ee4565b60a08301525060c0613089848285016130d5565b60c08301525060e061309d848285016130d5565b60e0830152506101006130b284828501612f4d565b610100830152506101206130c884828501612d99565b6101208301525092915050565b6000815190506130e481613d9e565b92915050565b6000815190506130f981613db5565b92915050565b60006020828403121561311157600080fd5b600061311f84828501612d84565b91505092915050565b60006020828403121561313a57600080fd5b600061314884828501612d99565b91505092915050565b6000806040838503121561316457600080fd5b600061317285828601612dae565b925050602061318385828601612dae565b9150509250929050565b60006020828403121561319f57600080fd5b600082015167ffffffffffffffff8111156131b957600080fd5b6131c584828501612dc3565b91505092915050565b6000602082840312156131e057600080fd5b60006131ee84828501612e46565b91505092915050565b60006020828403121561320957600080fd5b600061321784828501612e70565b91505092915050565b600080600080600080600060a0888a03121561323b57600080fd5b60006132498a828b01612f38565b975050602061325a8a828b01612d84565b965050604061326b8a828b01612e5b565b955050606088013567ffffffffffffffff81111561328857600080fd5b6132948a828b01612e9a565b9450945050608088013567ffffffffffffffff8111156132b357600080fd5b6132bf8a828b01612e9a565b925092505092959891949750929550565b600080600080600080600080600060c08a8c0312156132ee57600080fd5b60006132fc8c828d01612f38565b995050602061330d8c828d01612d84565b985050604061331e8c828d01612e5b565b97505060608a013567ffffffffffffffff81111561333b57600080fd5b6133478c828d01612e9a565b965096505060808a013567ffffffffffffffff81111561336657600080fd5b6133728c828d01612e9a565b945094505060a08a013567ffffffffffffffff81111561339157600080fd5b61339d8c828d01612e9a565b92509250509295985092959850929598565b6000602082840312156133c157600080fd5b600082015167ffffffffffffffff8111156133db57600080fd5b6133e784828501612f77565b91505092915050565b60006020828403121561340257600080fd5b600082015167ffffffffffffffff81111561341c57600080fd5b61342884828501612fcb565b91505092915050565b60006020828403121561344357600080fd5b6000613451848285016130d5565b91505092915050565b6000806000806080858703121561347057600080fd5b600061347e878288016130d5565b945050602061348f87828801612f62565b93505060406134a0878288016130d5565b92505060606134b1878288016130d5565b91505092959194509250565b60006134c983836134e4565b60208301905092915050565b6134de81613bb9565b82525050565b6134ed81613ae5565b82525050565b6134fc81613ae5565b82525050565b600061350d82613a8f565b6135178185613ab2565b935061352283613a7f565b8060005b8381101561355357815161353a88826134bd565b975061354583613aa5565b925050600181019050613526565b5085935050505092915050565b61356981613b09565b82525050565b61357881613b15565b82525050565b600061358a8385613ac3565b9350613597838584613c91565b6135a083613cd5565b840190509392505050565b60006135b682613a9a565b6135c08185613ac3565b93506135d0818560208601613ca0565b6135d981613cd5565b840191505092915050565b6135ed81613bcb565b82525050565b6135fc81613bef565b82525050565b61360b81613c13565b82525050565b61361a81613c37565b82525050565b61362981613b67565b82525050565b61363881613c5b565b82525050565b600061364b601d83613ad4565b91507f41756374696f6e3a206f6e6c7920434641763120737570706f727465640000006000830152602082019050919050565b600061368b601b83613ad4565b91507f41756374696f6e3a206e6f7420616363657074656420746f6b656e00000000006000830152602082019050919050565b60006136cb601e83613ad4565b91507f41756374696f6e3a20737570706f7274206f6e6c79206f6e6520686f737400006000830152602082019050919050565b61370781613ba2565b82525050565b600060208201905061372260008301846134f3565b92915050565b600060408201905061373d60008301856134f3565b61374a60208301846136fe565b9392505050565b600060608201905061376660008301866134f3565b61377360208301856136fe565b61378060408301846134d5565b949350505050565b600060808201905061379d60008301876134f3565b6137aa60208301866136fe565b6137b760408301856134d5565b6137c4606083018461362f565b95945050505050565b600060208201905081810360008301526137e881848661357e565b90509392505050565b6000602082019050818103600083015261380b81846135ab565b905092915050565b600060208201905061382860008301846135e4565b92915050565b600060208201905061384360008301846135f3565b92915050565b600060208201905061385e6000830184613602565b92915050565b60006040820190506138796000830185613602565b613886602083018461356f565b9392505050565b60006020820190506138a26000830184613611565b92915050565b600060208201905081810360008301526138c18161363e565b9050919050565b600060208201905081810360008301526138e18161367e565b9050919050565b60006020820190508181036000830152613901816136be565b9050919050565b600060208201905061391d60008301846136fe565b92915050565b600060808201905061393860008301876136fe565b6139456020830186613620565b61395260408301856136fe565b61395f6060830184613560565b95945050505050565b600060a08201905061397d60008301886136fe565b61398a60208301876136fe565b818103604083015261399c8186613502565b90506139ab60608301856134f3565b6139b860808301846136fe565b9695505050505050565b6000604051905081810181811067ffffffffffffffff821117156139e9576139e8613cd3565b5b8060405250919050565b600067ffffffffffffffff821115613a0e57613a0d613cd3565b5b602082029050602081019050919050565b600067ffffffffffffffff821115613a3a57613a39613cd3565b5b601f19601f8301169050602081019050919050565b600067ffffffffffffffff821115613a6a57613a69613cd3565b5b601f19601f8301169050602081019050919050565b6000819050602082019050919050565b600081519050919050565b600081519050919050565b6000602082019050919050565b600082825260208201905092915050565b600082825260208201905092915050565b600082825260208201905092915050565b6000613af082613b82565b9050919050565b6000613b0282613b82565b9050919050565b60008115159050919050565b6000819050919050565b60007fffffffff0000000000000000000000000000000000000000000000000000000082169050919050565b6000613b5682613ae5565b9050919050565b6000819050919050565b600081600b0b9050919050565b600061ffff82169050919050565b600073ffffffffffffffffffffffffffffffffffffffff82169050919050565b6000819050919050565b600060ff82169050919050565b6000613bc482613c6d565b9050919050565b6000613bd682613bdd565b9050919050565b6000613be882613b82565b9050919050565b6000613bfa82613c01565b9050919050565b6000613c0c82613b82565b9050919050565b6000613c1e82613c25565b9050919050565b6000613c3082613b82565b9050919050565b6000613c4282613c49565b9050919050565b6000613c5482613b82565b9050919050565b6000613c6682613b74565b9050919050565b6000613c7882613c7f565b9050919050565b6000613c8a82613b82565b9050919050565b82818337600083830152505050565b60005b83811015613cbe578082015181840152602081019050613ca3565b83811115613ccd576000848401525b50505050565bfe5b6000601f19601f8301169050919050565b613cef81613ae5565b8114613cfa57600080fd5b50565b613d0681613af7565b8114613d1157600080fd5b50565b613d1d81613b09565b8114613d2857600080fd5b50565b613d3481613b15565b8114613d3f57600080fd5b50565b613d4b81613b1f565b8114613d5657600080fd5b50565b613d6281613b4b565b8114613d6d57600080fd5b50565b613d7981613b5d565b8114613d8457600080fd5b50565b613d9081613b67565b8114613d9b57600080fd5b50565b613da781613ba2565b8114613db257600080fd5b50565b613dbe81613bac565b8114613dc957600080fd5b5056fe556e737570706f727465642063616c6c6261636b202d20204265666f72652041677265656d656e74205465726d696e61746564416464726573733a20696e73756666696369656e742062616c616e636520666f722063616c6c536166654d6174683a206d756c7469706c69636174696f6e206f766572666c6f77556e737570706f727465642063616c6c6261636b202d204265666f72652041677265656d656e742075706461746564556e737570706f727465642063616c6c6261636b202d204265666f72652041677265656d656e7420437265617465645361666545524332303a204552433230206f7065726174696f6e20646964206e6f742073756363656564a26469706673582212200393eef0085e4adb80f442b3c0508808a21e3b83309af38bfcf7c657d74ed46a64736f6c63430007050033",
  "linkReferences": {},
  "deployedLinkReferences": {}
}