{
  "_format": "hh-sol-artifact-1",
  "contractName": "FlowRoller",
  "sourceName": "contracts/FlowRoller.sol",
  "abi": [
    {
      "inputs": [
        {
          "internalType": "contract ISuperfluid",
          "name": "host",
          "type": "address"
        },
        {
          "internalType": "contract IConstantFlowAgreementV1",
          "name": "cfa",
          "type": "address"
        },
        {
          "internalType": "contract ISuperToken",
          "name": "superToken",
          "type": "address"
        },
        {
          "internalType": "contract ERC20",
          "name": "outputToken",
          "type": "address"
        },
        {
          "internalType": "contract ILendingPoolAddressesProvider",
          "name": "aaveLendingPoolProvider",
          "type": "address"
        },
        {
          "internalType": "contract IUniswapV2Router02",
          "name": "uniswapRouter",
          "type": "address"
        }
      ],
      "stateMutability": "nonpayable",
      "type": "constructor"
    },
    {
      "inputs": [],
      "name": "_cfa",
      "outputs": [
        {
          "internalType": "contract IConstantFlowAgreementV1",
          "name": "",
          "type": "address"
        }
      ],
      "stateMutability": "view",
      "type": "function"
    },
    {
      "inputs": [],
      "name": "_depositBalance",
      "outputs": [],
      "stateMutability": "nonpayable",
      "type": "function"
    },
    {
      "inputs": [],
      "name": "_outputToken",
      "outputs": [
        {
          "internalType": "contract ERC20",
          "name": "",
          "type": "address"
        }
      ],
      "stateMutability": "view",
      "type": "function"
    },
    {
      "inputs": [],
      "name": "_superToken",
      "outputs": [
        {
          "internalType": "contract ISuperToken",
          "name": "",
          "type": "address"
        }
      ],
      "stateMutability": "view",
      "type": "function"
    },
    {
      "inputs": [
        {
          "internalType": "address",
          "name": "saver",
          "type": "address"
        }
      ],
      "name": "_totalStreamedOf",
      "outputs": [
        {
          "internalType": "uint256",
          "name": "",
          "type": "uint256"
        },
        {
          "internalType": "uint256",
          "name": "",
          "type": "uint256"
        }
      ],
      "stateMutability": "view",
      "type": "function"
    },
    {
      "inputs": [],
      "name": "_uniswapRouter",
      "outputs": [
        {
          "internalType": "contract IUniswapV2Router02",
          "name": "",
          "type": "address"
        }
      ],
      "stateMutability": "view",
      "type": "function"
    },
    {
      "inputs": [
        {
          "internalType": "uint256",
          "name": "amount",
          "type": "uint256"
        },
        {
          "internalType": "address",
          "name": "aTokenAddress",
          "type": "address"
        }
      ],
      "name": "_withdraw",
      "outputs": [
        {
          "internalType": "uint256",
          "name": "swapOutputAmount",
          "type": "uint256"
        }
      ],
      "stateMutability": "nonpayable",
      "type": "function"
    },
    {
      "inputs": [
        {
          "internalType": "contract ISuperToken",
          "name": "superToken",
          "type": "address"
        },
        {
          "internalType": "address",
          "name": "agreementClass",
          "type": "address"
        },
        {
          "internalType": "bytes32",
          "name": "agreementId",
          "type": "bytes32"
        },
        {
          "internalType": "bytes",
          "name": "agreementData",
          "type": "bytes"
        },
        {
          "internalType": "bytes",
          "name": "",
          "type": "bytes"
        },
        {
          "internalType": "bytes",
          "name": "ctx",
          "type": "bytes"
        }
      ],
      "name": "afterAgreementCreated",
      "outputs": [
        {
          "internalType": "bytes",
          "name": "newCtx",
          "type": "bytes"
        }
      ],
      "stateMutability": "nonpayable",
      "type": "function"
    },
    {
      "inputs": [
        {
          "internalType": "contract ISuperToken",
          "name": "superToken",
          "type": "address"
        },
        {
          "internalType": "address",
          "name": "agreementClass",
          "type": "address"
        },
        {
          "internalType": "bytes32",
          "name": "agreementId",
          "type": "bytes32"
        },
        {
          "internalType": "bytes",
          "name": "agreementData",
          "type": "bytes"
        },
        {
          "internalType": "bytes",
          "name": "",
          "type": "bytes"
        },
        {
          "internalType": "bytes",
          "name": "ctx",
          "type": "bytes"
        }
      ],
      "name": "afterAgreementTerminated",
      "outputs": [
        {
          "internalType": "bytes",
          "name": "newCtx",
          "type": "bytes"
        }
      ],
      "stateMutability": "nonpayable",
      "type": "function"
    },
    {
      "inputs": [
        {
          "internalType": "contract ISuperToken",
          "name": "superToken",
          "type": "address"
        },
        {
          "internalType": "address",
          "name": "agreementClass",
          "type": "address"
        },
        {
          "internalType": "bytes32",
          "name": "agreementId",
          "type": "bytes32"
        },
        {
          "internalType": "bytes",
          "name": "agreementData",
          "type": "bytes"
        },
        {
          "internalType": "bytes",
          "name": "",
          "type": "bytes"
        },
        {
          "internalType": "bytes",
          "name": "ctx",
          "type": "bytes"
        }
      ],
      "name": "afterAgreementUpdated",
      "outputs": [
        {
          "internalType": "bytes",
          "name": "newCtx",
          "type": "bytes"
        }
      ],
      "stateMutability": "nonpayable",
      "type": "function"
    },
    {
      "inputs": [
        {
          "internalType": "contract ISuperToken",
          "name": "",
          "type": "address"
        },
        {
          "internalType": "address",
          "name": "",
          "type": "address"
        },
        {
          "internalType": "bytes32",
          "name": "",
          "type": "bytes32"
        },
        {
          "internalType": "bytes",
          "name": "",
          "type": "bytes"
        },
        {
          "internalType": "bytes",
          "name": "",
          "type": "bytes"
        }
      ],
      "name": "beforeAgreementCreated",
      "outputs": [
        {
          "internalType": "bytes",
          "name": "",
          "type": "bytes"
        }
      ],
      "stateMutability": "view",
      "type": "function"
    },
    {
      "inputs": [
        {
          "internalType": "contract ISuperToken",
          "name": "",
          "type": "address"
        },
        {
          "internalType": "address",
          "name": "",
          "type": "address"
        },
        {
          "internalType": "bytes32",
          "name": "",
          "type": "bytes32"
        },
        {
          "internalType": "bytes",
          "name": "",
          "type": "bytes"
        },
        {
          "internalType": "bytes",
          "name": "",
          "type": "bytes"
        }
      ],
      "name": "beforeAgreementTerminated",
      "outputs": [
        {
          "internalType": "bytes",
          "name": "",
          "type": "bytes"
        }
      ],
      "stateMutability": "view",
      "type": "function"
    },
    {
      "inputs": [
        {
          "internalType": "contract ISuperToken",
          "name": "",
          "type": "address"
        },
        {
          "internalType": "address",
          "name": "",
          "type": "address"
        },
        {
          "internalType": "bytes32",
          "name": "",
          "type": "bytes32"
        },
        {
          "internalType": "bytes",
          "name": "",
          "type": "bytes"
        },
        {
          "internalType": "bytes",
          "name": "",
          "type": "bytes"
        }
      ],
      "name": "beforeAgreementUpdated",
      "outputs": [
        {
          "internalType": "bytes",
          "name": "",
          "type": "bytes"
        }
      ],
      "stateMutability": "view",
      "type": "function"
    },
    {
      "inputs": [
        {
          "internalType": "address",
          "name": "",
          "type": "address"
        }
      ],
      "name": "savers",
      "outputs": [
        {
          "internalType": "uint256",
          "name": "timestamp",
          "type": "uint256"
        },
        {
          "internalType": "int96",
          "name": "flowRate",
          "type": "int96"
        },
        {
          "internalType": "uint256",
          "name": "depositableBalance",
          "type": "uint256"
        },
        {
          "internalType": "uint256",
          "name": "totalStreamed",
          "type": "uint256"
        },
        {
          "internalType": "bool",
          "name": "isTerminated",
          "type": "bool"
        }
      ],
      "stateMutability": "view",
      "type": "function"
    }
  ],
  "bytecode": "0x6101006040523480156200001257600080fd5b506040516200526a3803806200526a833981810160405281019062000038919062000518565b600073ffffffffffffffffffffffffffffffffffffffff168673ffffffffffffffffffffffffffffffffffffffff161415620000ab576040517f08c379a0000000000000000000000000000000000000000000000000000000008152600401620000a29062000795565b60405180910390fd5b600073ffffffffffffffffffffffffffffffffffffffff168573ffffffffffffffffffffffffffffffffffffffff1614156200011e576040517f08c379a000000000000000000000000000000000000000000000000000000000815260040162000115906200072f565b60405180910390fd5b600073ffffffffffffffffffffffffffffffffffffffff168473ffffffffffffffffffffffffffffffffffffffff16141562000191576040517f08c379a0000000000000000000000000000000000000000000000000000000008152600401620001889062000773565b60405180910390fd5b600073ffffffffffffffffffffffffffffffffffffffff168273ffffffffffffffffffffffffffffffffffffffff16141562000204576040517f08c379a0000000000000000000000000000000000000000000000000000000008152600401620001fb9062000751565b60405180910390fd5b600073ffffffffffffffffffffffffffffffffffffffff168173ffffffffffffffffffffffffffffffffffffffff16141562000277576040517f08c379a00000000000000000000000000000000000000000000000000000000081526004016200026e90620007b7565b60405180910390fd5b85600160006101000a81548173ffffffffffffffffffffffffffffffffffffffff021916908373ffffffffffffffffffffffffffffffffffffffff1602179055508473ffffffffffffffffffffffffffffffffffffffff1660808173ffffffffffffffffffffffffffffffffffffffff1660601b815250508373ffffffffffffffffffffffffffffffffffffffff1660a08173ffffffffffffffffffffffffffffffffffffffff1660601b8152505081600260006101000a81548173ffffffffffffffffffffffffffffffffffffffff021916908373ffffffffffffffffffffffffffffffffffffffff1602179055508073ffffffffffffffffffffffffffffffffffffffff1660e08173ffffffffffffffffffffffffffffffffffffffff1660601b815250508273ffffffffffffffffffffffffffffffffffffffff1660c08173ffffffffffffffffffffffffffffffffffffffff1660601b81525050600064100000000064040000000064010000000060011717179050600160009054906101000a900473ffffffffffffffffffffffffffffffffffffffff1673ffffffffffffffffffffffffffffffffffffffff1663ad3915c8826040518263ffffffff1660e01b81526004016200044d9190620007d9565b600060405180830381600087803b1580156200046857600080fd5b505af11580156200047d573d6000803e3d6000fd5b505050505050505050505062000959565b6000815190506200049f81620008bd565b92915050565b600081519050620004b681620008d7565b92915050565b600081519050620004cd81620008f1565b92915050565b600081519050620004e4816200090b565b92915050565b600081519050620004fb8162000925565b92915050565b60008151905062000512816200093f565b92915050565b60008060008060008060c087890312156200053257600080fd5b60006200054289828a01620004ea565b96505060206200055589828a01620004a5565b95505060406200056889828a01620004d3565b94505060606200057b89828a016200048e565b93505060806200058e89828a01620004bc565b92505060a0620005a189828a0162000501565b9150509295509295509295565b6000620005bd601583620007f6565b91507f41756374696f6e3a2063666120697320656d70747900000000000000000000006000830152602082019050919050565b6000620005ff602983620007f6565b91507f41756374696f6e3a20616176654c656e64696e67506f6f6c50726f766964657260008301527f20697320656d70747900000000000000000000000000000000000000000000006020830152604082019050919050565b600062000667601c83620007f6565b91507f41756374696f6e3a207375706572546f6b656e20697320656d707479000000006000830152602082019050919050565b6000620006a9601683620007f6565b91507f41756374696f6e3a20686f737420697320656d707479000000000000000000006000830152602082019050919050565b6000620006eb601f83620007f6565b91507f41756374696f6e3a20756e6973776170526f7574657220697320656d707479006000830152602082019050919050565b6200072981620008b3565b82525050565b600060208201905081810360008301526200074a81620005ae565b9050919050565b600060208201905081810360008301526200076c81620005f0565b9050919050565b600060208201905081810360008301526200078e8162000658565b9050919050565b60006020820190508181036000830152620007b0816200069a565b9050919050565b60006020820190508181036000830152620007d281620006dc565b9050919050565b6000602082019050620007f060008301846200071e565b92915050565b600082825260208201905092915050565b6000620008148262000893565b9050919050565b6000620008288262000807565b9050919050565b60006200083c8262000807565b9050919050565b6000620008508262000807565b9050919050565b6000620008648262000807565b9050919050565b6000620008788262000807565b9050919050565b60006200088c8262000807565b9050919050565b600073ffffffffffffffffffffffffffffffffffffffff82169050919050565b6000819050919050565b620008c8816200081b565b8114620008d457600080fd5b50565b620008e2816200082f565b8114620008ee57600080fd5b50565b620008fc8162000843565b81146200090857600080fd5b50565b620009168162000857565b81146200092257600080fd5b50565b62000930816200086b565b81146200093c57600080fd5b50565b6200094a816200087f565b81146200095657600080fd5b50565b60805160601c60a05160601c60c05160601c60e05160601c61486b620009ff60003980610ee6528061240152806125015250806107e35280610a5352806114a1528061151452806116af52806117f652806119055250806108e15280610b7a5280610bc25280610c4d5280611164528061120e52806112f552806119295280611acf5280611d715280612b1e525080610f0a5280611d355280612ae2525061486b6000f3fe608060405234801561001057600080fd5b50600436106100ea5760003560e01c80637cb4d6d71161008c5780639a730aff116100665780639a730aff146102b05780639b50a2c4146102ba578063c8b53aef146102d8578063d86ed3e5146102f6576100ea565b80637cb4d6d714610231578063884d1f401461024f57806393c56aef1461027f576100ea565b806353c11f99116100c857806353c11f991461017f5780635c63cacb146101af5780635f9e7d77146101e357806365b61b7714610213576100ea565b8063230dbd29146100ef578063293311ab1461011f57806330d9c9151461014f575b600080fd5b61010960048036038101906101049190613afc565b610326565b60405161011691906140fd565b60405180910390f35b61013960048036038101906101349190613c86565b6104a6565b6040516101469190614214565b60405180910390f35b61016960048036038101906101649190613a4c565b610d02565b60405161017691906140fd565b60405180910390f35b61019960048036038101906101949190613afc565b610d55565b6040516101a691906140fd565b60405180910390f35b6101c960048036038101906101c4919061392b565b610e41565b6040516101da95949392919061422f565b60405180910390f35b6101fd60048036038101906101f89190613a4c565b610e91565b60405161020a91906140fd565b60405180910390f35b61021b610ee4565b6040516102289190614199565b60405180910390f35b610239610f08565b604051610246919061413a565b60405180910390f35b61026960048036038101906102649190613a4c565b610f2c565b60405161027691906140fd565b60405180910390f35b6102996004803603810190610294919061392b565b610f7f565b6040516102a7929190614282565b60405180910390f35b6102b861100f565b005b6102c2611903565b6040516102cf919061411f565b60405180910390f35b6102e0611927565b6040516102ed9190614155565b60405180910390f35b610310600480360381019061030b9190613afc565b61194b565b60405161031d91906140fd565b60405180910390f35b6060600160009054906101000a900473ffffffffffffffffffffffffffffffffffffffff1673ffffffffffffffffffffffffffffffffffffffff163373ffffffffffffffffffffffffffffffffffffffff16146103b8576040517f08c379a00000000000000000000000000000000000000000000000000000000081526004016103af906141f4565b60405180910390fd5b89896103c382611acb565b610402576040517f08c379a00000000000000000000000000000000000000000000000000000000081526004016103f9906141d4565b60405180910390fd5b61040b81611b23565b61044a576040517f08c379a0000000000000000000000000000000000000000000000000000000008152600401610441906141b4565b60405180910390fd5b6104886040518060400160405280601c81526020017f616674657241677265656d656e74557064617465642063616c6c656400000000815250611bcc565b61049585858b8b8e611cca565b925050509998505050505050505050565b60006104e66040518060400160405280601e81526020017f616d6f756e742072657175657374656420746f2077697468647261773a200000815250611bcc565b6104ef836121fb565b61052d6040518060400160405280601f81526020017f61546f6b656e2062616c616e636520666f72206d73672e73656e6465723a2000815250611bcc565b6105be8273ffffffffffffffffffffffffffffffffffffffff166370a08231336040518263ffffffff1660e01b81526004016105699190613f90565b60206040518083038186803b15801561058157600080fd5b505afa158015610595573d6000803e3d6000fd5b505050506040513d601f19601f820116820180604052508101906105b99190613c5d565b6121fb565b6105fc6040518060400160405280601a81526020017f616c6c6f77616e636520746f207370656e6420746f6b656e733a000000000000815250611bcc565b61068f8273ffffffffffffffffffffffffffffffffffffffff1663dd62ed3e33306040518363ffffffff1660e01b815260040161063a929190613fab565b60206040518083038186803b15801561065257600080fd5b505afa158015610666573d6000803e3d6000fd5b505050506040513d601f19601f8201168201806040525081019061068a9190613c5d565b6121fb565b8173ffffffffffffffffffffffffffffffffffffffff166323b872dd3330866040518463ffffffff1660e01b81526004016106cc93929190613fd4565b602060405180830381600087803b1580156106e657600080fd5b505af11580156106fa573d6000803e3d6000fd5b505050506040513d601f19601f8201168201806040525081019061071e91906139fa565b506000600260009054906101000a900473ffffffffffffffffffffffffffffffffffffffff1673ffffffffffffffffffffffffffffffffffffffff16630261bf8b6040518163ffffffff1660e01b815260040160206040518083038186803b15801561078957600080fd5b505afa15801561079d573d6000803e3d6000fd5b505050506040513d601f19601f820116820180604052508101906107c19190613954565b905060008173ffffffffffffffffffffffffffffffffffffffff166369328dec7f00000000000000000000000000000000000000000000000000000000000000007fffffffffffffffffffffffffffffffffffffffffffffffffffffffffffffffff306040518463ffffffff1660e01b81526004016108429392919061405d565b602060405180830381600087803b15801561085c57600080fd5b505af1158015610870573d6000803e3d6000fd5b505050506040513d601f19601f820116820180604052508101906108949190613c5d565b90506108d46040518060400160405280600981526020017f77697468647261776e0000000000000000000000000000000000000000000000815250611bcc565b6108dd816121fb565b60007f000000000000000000000000000000000000000000000000000000000000000073ffffffffffffffffffffffffffffffffffffffff1663ee719bc86040518163ffffffff1660e01b815260040160206040518083038186803b15801561094557600080fd5b505afa158015610959573d6000803e3d6000fd5b505050506040513d601f19601f8201168201806040525081019061097d9190613954565b90506109bd6040518060400160405280601981526020017f756e6465726c79696e67546f6b656e2062616c616e63653a2000000000000000815250611bcc565b610a4e8173ffffffffffffffffffffffffffffffffffffffff166370a08231306040518263ffffffff1660e01b81526004016109f99190613f75565b60206040518083038186803b158015610a1157600080fd5b505afa158015610a25573d6000803e3d6000fd5b505050506040513d601f19601f82011682018060405250810190610a499190613c5d565b6121fb565b610a7a7f0000000000000000000000000000000000000000000000000000000000000000823089612294565b9350610aba6040518060400160405280601081526020017f737761704f7574707574416d6f756e7400000000000000000000000000000000815250611bcc565b610ac3846121fb565b610ae460405180606001604052806024815260200161478a60249139611bcc565b610b758173ffffffffffffffffffffffffffffffffffffffff166370a08231306040518263ffffffff1660e01b8152600401610b209190613f75565b60206040518083038186803b158015610b3857600080fd5b505afa158015610b4c573d6000803e3d6000fd5b505050506040513d601f19601f82011682018060405250810190610b709190613c5d565b6121fb565b610bc07f0000000000000000000000000000000000000000000000000000000000000000858373ffffffffffffffffffffffffffffffffffffffff166125dc9092919063ffffffff16565b7f000000000000000000000000000000000000000000000000000000000000000073ffffffffffffffffffffffffffffffffffffffff166345977d03856040518263ffffffff1660e01b8152600401610c199190614214565b600060405180830381600087803b158015610c3357600080fd5b505af1158015610c47573d6000803e3d6000fd5b505050507f000000000000000000000000000000000000000000000000000000000000000073ffffffffffffffffffffffffffffffffffffffff1663a9059cbb33866040518363ffffffff1660e01b8152600401610ca692919061400b565b602060405180830381600087803b158015610cc057600080fd5b505af1158015610cd4573d6000803e3d6000fd5b505050506040513d601f19601f82011682018060405250810190610cf891906139fa565b5050505092915050565b60606040517f08c379a000000000000000000000000000000000000000000000000000000000815260040180806020018281038252602f8152602001806147dd602f913960400191505060405180910390fd5b6060600160009054906101000a900473ffffffffffffffffffffffffffffffffffffffff1673ffffffffffffffffffffffffffffffffffffffff163373ffffffffffffffffffffffffffffffffffffffff1614610de7576040517f08c379a0000000000000000000000000000000000000000000000000000000008152600401610dde906141f4565b60405180910390fd5b610e256040518060400160405280601f81526020017f616674657241677265656d656e745465726d696e617465642063616c6c656400815250611bcc565b610e32838389898c611cca565b90509998505050505050505050565b60006020528060005260406000206000915090508060000154908060010160009054906101000a9004600b0b908060020154908060030154908060040160009054906101000a900460ff16905085565b60606040517f08c379a00000000000000000000000000000000000000000000000000000000081526004018080602001828103825260338152602001806147106033913960400191505060405180910390fd5b7f000000000000000000000000000000000000000000000000000000000000000081565b7f000000000000000000000000000000000000000000000000000000000000000081565b60606040517f08c379a000000000000000000000000000000000000000000000000000000000815260040180806020018281038252602f8152602001806147ae602f913960400191505060405180910390fd5b6000806000808473ffffffffffffffffffffffffffffffffffffffff1673ffffffffffffffffffffffffffffffffffffffff168152602001908152602001600020600301546000808573ffffffffffffffffffffffffffffffffffffffff1673ffffffffffffffffffffffffffffffffffffffff1681526020019081526020016000206000015491509150915091565b60004290506110526040518060400160405280600c81526020017f6d73672e73656e6465723a200000000000000000000000000000000000000000815250611bcc565b61105b33612755565b60006110673383612804565b90506110a76040518060400160405280601581526020017f62616c616e63654174436865636b706f696e743a200000000000000000000000815250611bcc565b6110b0816121fb565b600081905060007fffffffffffffffffffffffffffffffffffffffffffffffffffffffffffffffff90506111186040518060400160405280600881526020017f616d6f756e743a20000000000000000000000000000000000000000000000000815250611bcc565b6111218161292f565b61115f6040518060400160405280601481526020017f5f7375706572546f6b656e2073796d626f6c3a20000000000000000000000000815250611bcc565b61120a7f000000000000000000000000000000000000000000000000000000000000000073ffffffffffffffffffffffffffffffffffffffff166306fdde036040518163ffffffff1660e01b815260040160006040518083038186803b1580156111c857600080fd5b505afa1580156111dc573d6000803e3d6000fd5b505050506040513d6000823e3d601f19601f820116820180604052508101906112059190613bdb565b611bcc565b60007f000000000000000000000000000000000000000000000000000000000000000073ffffffffffffffffffffffffffffffffffffffff1663ee719bc86040518163ffffffff1660e01b815260040160206040518083038186803b15801561127257600080fd5b505afa158015611286573d6000803e3d6000fd5b505050506040513d601f19601f820116820180604052508101906112aa9190613954565b90506112ea6040518060400160405280601181526020017f756e6465726c79696e67546f6b656e3a20000000000000000000000000000000815250611bcc565b6112f3816129c8565b7f000000000000000000000000000000000000000000000000000000000000000073ffffffffffffffffffffffffffffffffffffffff166311bcc81e846040518263ffffffff1660e01b815260040161134c9190614214565b600060405180830381600087803b15801561136657600080fd5b505af115801561137a573d6000803e3d6000fd5b505050506113bc6040518060400160405280601181526020017f616d6f756e74546f4465706f7369743a20000000000000000000000000000000815250611bcc565b6113c5836121fb565b60008173ffffffffffffffffffffffffffffffffffffffff166370a08231306040518263ffffffff1660e01b81526004016114009190613f75565b60206040518083038186803b15801561141857600080fd5b505afa15801561142c573d6000803e3d6000fd5b505050506040513d601f19601f820116820180604052508101906114509190613c5d565b90506114906040518060400160405280601981526020017f756e6465726c79696e67546f6b656e2062616c616e63653a2000000000000000815250611bcc565b611499816121fb565b60006114c7837f00000000000000000000000000000000000000000000000000000000000000003088612294565b90506115076040518060400160405280601081526020017f737761704f7574707574416d6f756e7400000000000000000000000000000000815250611bcc565b611510816121fb565b60007f000000000000000000000000000000000000000000000000000000000000000073ffffffffffffffffffffffffffffffffffffffff166370a08231306040518263ffffffff1660e01b815260040161156b9190613f75565b60206040518083038186803b15801561158357600080fd5b505afa158015611597573d6000803e3d6000fd5b505050506040513d601f19601f820116820180604052508101906115bb9190613c5d565b90506115fb6040518060400160405280601281526020017f6f7574707574546f6b656e42616c616e63650000000000000000000000000000815250611bcc565b611604816121fb565b6000600260009054906101000a900473ffffffffffffffffffffffffffffffffffffffff16905060008173ffffffffffffffffffffffffffffffffffffffff16630261bf8b6040518163ffffffff1660e01b815260040160206040518083038186803b15801561167357600080fd5b505afa158015611687573d6000803e3d6000fd5b505050506040513d601f19601f820116820180604052508101906116ab9190613954565b90507f000000000000000000000000000000000000000000000000000000000000000073ffffffffffffffffffffffffffffffffffffffff1663095ea7b38373ffffffffffffffffffffffffffffffffffffffff16630261bf8b6040518163ffffffff1660e01b815260040160206040518083038186803b15801561172f57600080fd5b505afa158015611743573d6000803e3d6000fd5b505050506040513d601f19601f820116820180604052508101906117679190613954565b866040518363ffffffff1660e01b8152600401611785929190614034565b602060405180830381600087803b15801561179f57600080fd5b505af11580156117b3573d6000803e3d6000fd5b505050506040513d601f19601f820116820180604052508101906117d791906139fa565b508073ffffffffffffffffffffffffffffffffffffffff1663e8eda9df7f0000000000000000000000000000000000000000000000000000000000000000863360006040518563ffffffff1660e01b81526004016118389493929190614094565b600060405180830381600087803b15801561185257600080fd5b505af1158015611866573d6000803e3d6000fd5b50505050896000803373ffffffffffffffffffffffffffffffffffffffff1673ffffffffffffffffffffffffffffffffffffffff1681526020019081526020016000206000018190555060008060003373ffffffffffffffffffffffffffffffffffffffff1673ffffffffffffffffffffffffffffffffffffffff1681526020019081526020016000206002018190555050505050505050505050565b7f000000000000000000000000000000000000000000000000000000000000000081565b7f000000000000000000000000000000000000000000000000000000000000000081565b6060600160009054906101000a900473ffffffffffffffffffffffffffffffffffffffff1673ffffffffffffffffffffffffffffffffffffffff163373ffffffffffffffffffffffffffffffffffffffff16146119dd576040517f08c379a00000000000000000000000000000000000000000000000000000000081526004016119d4906141f4565b60405180910390fd5b89896119e882611acb565b611a27576040517f08c379a0000000000000000000000000000000000000000000000000000000008152600401611a1e906141d4565b60405180910390fd5b611a3081611b23565b611a6f576040517f08c379a0000000000000000000000000000000000000000000000000000000008152600401611a66906141b4565b60405180910390fd5b611aad6040518060400160405280601c81526020017f616674657241677265656d656e74437265617465642063616c6c656400000000815250611bcc565b611aba85858b8b8e612a77565b925050509998505050505050505050565b60007f000000000000000000000000000000000000000000000000000000000000000073ffffffffffffffffffffffffffffffffffffffff168273ffffffffffffffffffffffffffffffffffffffff16149050919050565b60007fa9214cc96615e0085d3bb077758db69497dc2dce3b2b1e97bc93c3d18d83efd38273ffffffffffffffffffffffffffffffffffffffff16637730599e6040518163ffffffff1660e01b815260040160206040518083038186803b158015611b8c57600080fd5b505afa158015611ba0573d6000803e3d6000fd5b505050506040513d601f19601f82011682018060405250810190611bc49190613a23565b149050919050565b611cc7816040516024018080602001828103825283818151815260200191508051906020019080838360005b83811015611c13578082015181840152602081019050611bf8565b50505050905090810190601f168015611c405780820380516001836020036101000a031916815260200191505b50925050506040516020818303038152906040527f41304fac000000000000000000000000000000000000000000000000000000007bffffffffffffffffffffffffffffffffffffffffffffffffffffffff19166020820180517bffffffffffffffffffffffffffffffffffffffffffffffffffffffff8381831617835250505050612d61565b50565b606085858080601f016020809104026020016040519081016040528093929190818152602001838380828437600081840152601f19601f820116905080830192505050505050509050611d1c82612d8a565b60008484810190611d2d919061397d565b5090506000807f000000000000000000000000000000000000000000000000000000000000000073ffffffffffffffffffffffffffffffffffffffff1663aabd26687f0000000000000000000000000000000000000000000000000000000000000000876040518363ffffffff1660e01b8152600401611dae929190614170565b60806040518083038186803b158015611dc657600080fd5b505afa158015611dda573d6000803e3d6000fd5b505050506040513d601f19601f82011682018060405250810190611dfe9190613cc2565b505091509150600081600b0b1415611f6d57611e4e6040518060400160405280601081526020017f64656c6574696e6720666c6f772e2e2e00000000000000000000000000000000815250611bcc565b60016000808573ffffffffffffffffffffffffffffffffffffffff1673ffffffffffffffffffffffffffffffffffffffff16815260200190815260200160002060040160006101000a81548160ff021916908315150217905550611eb06134f7565b600160009054906101000a900473ffffffffffffffffffffffffffffffffffffffff1673ffffffffffffffffffffffffffffffffffffffff16633f6c923a8b8b6040518363ffffffff1660e01b8152600401611f0d9291906140d9565b60006040518083038186803b158015611f2557600080fd5b505afa158015611f39573d6000803e3d6000fd5b505050506040513d6000823e3d601f19601f82011682018060405250810190611f629190613c1c565b905080604001519250505b611fab6040518060400160405280601081526020017f7570646174656454696d657374616d7000000000000000000000000000000000815250611bcc565b611fb4826121fb565b611ff26040518060400160405280600f81526020017f75706461746564466c6f77526174650000000000000000000000000000000000815250611bcc565b611ffe81600b0b61292f565b600061200a8484612804565b905060006120188585612e23565b90506120586040518060400160405280601281526020017f6465706f73697461626c6542616c616e63650000000000000000000000000000815250611bcc565b612061826121fb565b61209f6040518060400160405280600d81526020017f746f74616c53747265616d656400000000000000000000000000000000000000815250611bcc565b6120a8816121fb565b816000808773ffffffffffffffffffffffffffffffffffffffff1673ffffffffffffffffffffffffffffffffffffffff16815260200190815260200160002060020181905550806000808773ffffffffffffffffffffffffffffffffffffffff1673ffffffffffffffffffffffffffffffffffffffff16815260200190815260200160002060030181905550836000808773ffffffffffffffffffffffffffffffffffffffff1673ffffffffffffffffffffffffffffffffffffffff16815260200190815260200160002060000181905550826000808773ffffffffffffffffffffffffffffffffffffffff1673ffffffffffffffffffffffffffffffffffffffff16815260200190815260200160002060010160006101000a8154816bffffffffffffffffffffffff0219169083600b0b6bffffffffffffffffffffffff160217905550505050505095945050505050565b61229181604051602401808281526020019150506040516020818303038152906040527ff5b1bba9000000000000000000000000000000000000000000000000000000007bffffffffffffffffffffffffffffffffffffffffffffffffffffffff19166020820180517bffffffffffffffffffffffffffffffffffffffffffffffffffffffff8381831617835250505050612d61565b50565b60006060600267ffffffffffffffff811180156122b057600080fd5b506040519080825280602002602001820160405280156122df5781602001602082028036833780820191505090505b50905085816000815181106122f057fe5b602002602001019073ffffffffffffffffffffffffffffffffffffffff16908173ffffffffffffffffffffffffffffffffffffffff1681525050848160018151811061233857fe5b602002602001019073ffffffffffffffffffffffffffffffffffffffff16908173ffffffffffffffffffffffffffffffffffffffff1681525050600061239a61238b60c886612f4e90919063ffffffff16565b85612fd790919063ffffffff16565b905060006123b36104b04261305a90919063ffffffff16565b90506123f36040518060400160405280600e81526020017f6d696e5472616465416d6f756e74000000000000000000000000000000000000815250611bcc565b6123fc826121fb565b6124477f0000000000000000000000000000000000000000000000000000000000000000868a73ffffffffffffffffffffffffffffffffffffffff166125dc9092919063ffffffff16565b6124856040518060400160405280600781526020017f706174685b305d00000000000000000000000000000000000000000000000000815250611bcc565b6124a28360008151811061249557fe5b60200260200101516129c8565b6124e06040518060400160405280600781526020017f706174685b315d00000000000000000000000000000000000000000000000000815250611bcc565b6124fd836001815181106124f057fe5b60200260200101516129c8565b60607f000000000000000000000000000000000000000000000000000000000000000073ffffffffffffffffffffffffffffffffffffffff166338ed17398785878b876040518663ffffffff1660e01b81526004016125609594939291906142ab565b600060405180830381600087803b15801561257a57600080fd5b505af115801561258e573d6000803e3d6000fd5b505050506040513d6000823e3d601f19601f820116820180604052508101906125b791906139b9565b9050806001815181106125c657fe5b6020026020010151945050505050949350505050565b60006126b0828573ffffffffffffffffffffffffffffffffffffffff1663dd62ed3e30876040518363ffffffff1660e01b8152600401808373ffffffffffffffffffffffffffffffffffffffff1681526020018273ffffffffffffffffffffffffffffffffffffffff1681526020019250505060206040518083038186803b15801561266757600080fd5b505afa15801561267b573d6000803e3d6000fd5b505050506040513d602081101561269157600080fd5b810190808051906020019092919050505061305a90919063ffffffff16565b905061274f8463095ea7b360e01b8584604051602401808373ffffffffffffffffffffffffffffffffffffffff16815260200182815260200192505050604051602081830303815290604052907bffffffffffffffffffffffffffffffffffffffffffffffffffffffff19166020820180517bffffffffffffffffffffffffffffffffffffffffffffffffffffffff83818316178352505050506130e2565b50505050565b61280181604051602401808273ffffffffffffffffffffffffffffffffffffffff1681526020019150506040516020818303038152906040527f2c2ecbc2000000000000000000000000000000000000000000000000000000007bffffffffffffffffffffffffffffffffffffffffffffffffffffffff19166020820180517bffffffffffffffffffffffffffffffffffffffffffffffffffffffff8381831617835250505050612d61565b50565b6000806000808573ffffffffffffffffffffffffffffffffffffffff1673ffffffffffffffffffffffffffffffffffffffff16815260200190815260200160002060010160009054906101000a9004600b0b905060008060008673ffffffffffffffffffffffffffffffffffffffff1673ffffffffffffffffffffffffffffffffffffffff16815260200190815260200160002060000154905060006128b38286612fd790919063ffffffff16565b905060006129206128d085600b0b846131d190919063ffffffff16565b6000808a73ffffffffffffffffffffffffffffffffffffffff1673ffffffffffffffffffffffffffffffffffffffff1681526020019081526020016000206002015461305a90919063ffffffff16565b90508094505050505092915050565b6129c581604051602401808281526020019150506040516020818303038152906040527f4e0c1d1d000000000000000000000000000000000000000000000000000000007bffffffffffffffffffffffffffffffffffffffffffffffffffffffff19166020820180517bffffffffffffffffffffffffffffffffffffffffffffffffffffffff8381831617835250505050612d61565b50565b612a7481604051602401808273ffffffffffffffffffffffffffffffffffffffff1681526020019150506040516020818303038152906040527f2c2ecbc2000000000000000000000000000000000000000000000000000000007bffffffffffffffffffffffffffffffffffffffffffffffffffffffff19166020820180517bffffffffffffffffffffffffffffffffffffffffffffffffffffffff8381831617835250505050612d61565b50565b606085858080601f016020809104026020016040519081016040528093929190818152602001838380828437600081840152601f19601f820116905080830192505050505050509050612ac982612d8a565b60008484810190612ada919061397d565b5090506000807f000000000000000000000000000000000000000000000000000000000000000073ffffffffffffffffffffffffffffffffffffffff1663aabd26687f0000000000000000000000000000000000000000000000000000000000000000876040518363ffffffff1660e01b8152600401612b5b929190614170565b60806040518083038186803b158015612b7357600080fd5b505afa158015612b87573d6000803e3d6000fd5b505050506040513d601f19601f82011682018060405250810190612bab9190613cc2565b505091509150612bef6040518060400160405280601081526020017f7570646174656454696d657374616d7000000000000000000000000000000000815250611bcc565b612bf8826121fb565b612c366040518060400160405280600f81526020017f75706461746564466c6f77526174650000000000000000000000000000000000815250611bcc565b612c4281600b0b61292f565b816000808573ffffffffffffffffffffffffffffffffffffffff1673ffffffffffffffffffffffffffffffffffffffff16815260200190815260200160002060000181905550806000808573ffffffffffffffffffffffffffffffffffffffff1673ffffffffffffffffffffffffffffffffffffffff16815260200190815260200160002060010160006101000a8154816bffffffffffffffffffffffff0219169083600b0b6bffffffffffffffffffffffff16021790555060008060008573ffffffffffffffffffffffffffffffffffffffff1673ffffffffffffffffffffffffffffffffffffffff16815260200190815260200160002060040160006101000a81548160ff02191690831515021790555050505095945050505050565b60008151905060006a636f6e736f6c652e6c6f679050602083016000808483855afa5050505050565b612e2081604051602401808281526020019150506040516020818303038152906040527f27b7cf85000000000000000000000000000000000000000000000000000000007bffffffffffffffffffffffffffffffffffffffffffffffffffffffff19166020820180517bffffffffffffffffffffffffffffffffffffffffffffffffffffffff8381831617835250505050612d61565b50565b6000806000808573ffffffffffffffffffffffffffffffffffffffff1673ffffffffffffffffffffffffffffffffffffffff16815260200190815260200160002060010160009054906101000a9004600b0b905060008060008673ffffffffffffffffffffffffffffffffffffffff1673ffffffffffffffffffffffffffffffffffffffff1681526020019081526020016000206000015490506000612ed28286612fd790919063ffffffff16565b90506000612f3f612eef85600b0b846131d190919063ffffffff16565b6000808a73ffffffffffffffffffffffffffffffffffffffff1673ffffffffffffffffffffffffffffffffffffffff1681526020019081526020016000206003015461305a90919063ffffffff16565b90508094505050505092915050565b6000808211612fc5576040517f08c379a000000000000000000000000000000000000000000000000000000000815260040180806020018281038252601a8152602001807f536166654d6174683a206469766973696f6e206279207a65726f00000000000081525060200191505060405180910390fd5b818381612fce57fe5b04905092915050565b60008282111561304f576040517f08c379a000000000000000000000000000000000000000000000000000000000815260040180806020018281038252601e8152602001807f536166654d6174683a207375627472616374696f6e206f766572666c6f77000081525060200191505060405180910390fd5b818303905092915050565b6000808284019050838110156130d8576040517f08c379a000000000000000000000000000000000000000000000000000000000815260040180806020018281038252601b8152602001807f536166654d6174683a206164646974696f6e206f766572666c6f77000000000081525060200191505060405180910390fd5b8091505092915050565b6060613144826040518060400160405280602081526020017f5361666545524332303a206c6f772d6c6576656c2063616c6c206661696c65648152508573ffffffffffffffffffffffffffffffffffffffff166132579092919063ffffffff16565b90506000815111156131cc5780806020019051602081101561316557600080fd5b81019080805190602001909291905050506131cb576040517f08c379a000000000000000000000000000000000000000000000000000000000815260040180806020018281038252602a81526020018061480c602a913960400191505060405180910390fd5b5b505050565b6000808314156131e45760009050613251565b60008284029050828482816131f557fe5b041461324c576040517f08c379a00000000000000000000000000000000000000000000000000000000081526004018080602001828103825260218152602001806147696021913960400191505060405180910390fd5b809150505b92915050565b6060613266848460008561326f565b90509392505050565b6060824710156132ca576040517f08c379a00000000000000000000000000000000000000000000000000000000081526004018080602001828103825260268152602001806147436026913960400191505060405180910390fd5b6132d385613418565b613345576040517f08c379a000000000000000000000000000000000000000000000000000000000815260040180806020018281038252601d8152602001807f416464726573733a2063616c6c20746f206e6f6e2d636f6e747261637400000081525060200191505060405180910390fd5b600060608673ffffffffffffffffffffffffffffffffffffffff1685876040518082805190602001908083835b602083106133955780518252602082019150602081019050602083039250613372565b6001836020036101000a03801982511681845116808217855250505050505090500191505060006040518083038185875af1925050503d80600081146133f7576040519150601f19603f3d011682016040523d82523d6000602084013e6133fc565b606091505b509150915061340c82828661342b565b92505050949350505050565b600080823b905060008111915050919050565b6060831561343b578290506134f0565b60008351111561344e5782518084602001fd5b816040517f08c379a00000000000000000000000000000000000000000000000000000000081526004018080602001828103825283818151815260200191508051906020019080838360005b838110156134b557808201518184015260208101905061349a565b50505050905090810190601f1680156134e25780820380516001836020036101000a031916815260200191505b509250505060405180910390fd5b9392505050565b604051806101400160405280600060ff168152602001600060ff16815260200160008152602001600073ffffffffffffffffffffffffffffffffffffffff16815260200160007bffffffffffffffffffffffffffffffffffffffffffffffffffffffff1916815260200160608152602001600081526020016000815260200160008152602001600073ffffffffffffffffffffffffffffffffffffffff1681525090565b6000813590506135aa81614629565b92915050565b6000815190506135bf81614629565b92915050565b6000813590506135d481614640565b92915050565b600082601f8301126135eb57600080fd5b81516135fe6135f982614336565b614305565b9150818183526020840193506020810190508385602084028201111561362357600080fd5b60005b8381101561365357816136398882613901565b845260208401935060208301925050600181019050613626565b5050505092915050565b60008151905061366c81614657565b92915050565b6000813590506136818161466e565b92915050565b6000815190506136968161466e565b92915050565b6000815190506136ab81614685565b92915050565b60008083601f8401126136c357600080fd5b8235905067ffffffffffffffff8111156136dc57600080fd5b6020830191508360018202830111156136f457600080fd5b9250929050565b600082601f83011261370c57600080fd5b815161371f61371a82614362565b614305565b9150808252602083016020830185838301111561373b57600080fd5b6137468382846145e3565b50505092915050565b60008135905061375e8161469c565b92915050565b600081519050613773816146b3565b92915050565b600081519050613788816146ca565b92915050565b600082601f83011261379f57600080fd5b81516137b26137ad82614392565b614305565b915080825260208301602083018583830111156137ce57600080fd5b6137d98382846145e3565b50505092915050565b600061014082840312156137f557600080fd5b613800610140614305565b9050600061381084828501613916565b600083015250602061382484828501613916565b602083015250604061383884828501613901565b604083015250606061384c848285016135b0565b60608301525060806138608482850161369c565b60808301525060a082015167ffffffffffffffff81111561388057600080fd5b61388c848285016136fb565b60a08301525060c06138a084828501613901565b60c08301525060e06138b484828501613901565b60e0830152506101006138c984828501613764565b610100830152506101206138df848285016135b0565b6101208301525092915050565b6000813590506138fb816146e1565b92915050565b600081519050613910816146e1565b92915050565b600081519050613925816146f8565b92915050565b60006020828403121561393d57600080fd5b600061394b8482850161359b565b91505092915050565b60006020828403121561396657600080fd5b6000613974848285016135b0565b91505092915050565b6000806040838503121561399057600080fd5b600061399e858286016135c5565b92505060206139af858286016135c5565b9150509250929050565b6000602082840312156139cb57600080fd5b600082015167ffffffffffffffff8111156139e557600080fd5b6139f1848285016135da565b91505092915050565b600060208284031215613a0c57600080fd5b6000613a1a8482850161365d565b91505092915050565b600060208284031215613a3557600080fd5b6000613a4384828501613687565b91505092915050565b600080600080600080600060a0888a031215613a6757600080fd5b6000613a758a828b0161374f565b9750506020613a868a828b0161359b565b9650506040613a978a828b01613672565b955050606088013567ffffffffffffffff811115613ab457600080fd5b613ac08a828b016136b1565b9450945050608088013567ffffffffffffffff811115613adf57600080fd5b613aeb8a828b016136b1565b925092505092959891949750929550565b600080600080600080600080600060c08a8c031215613b1a57600080fd5b6000613b288c828d0161374f565b9950506020613b398c828d0161359b565b9850506040613b4a8c828d01613672565b97505060608a013567ffffffffffffffff811115613b6757600080fd5b613b738c828d016136b1565b965096505060808a013567ffffffffffffffff811115613b9257600080fd5b613b9e8c828d016136b1565b945094505060a08a013567ffffffffffffffff811115613bbd57600080fd5b613bc98c828d016136b1565b92509250509295985092959850929598565b600060208284031215613bed57600080fd5b600082015167ffffffffffffffff811115613c0757600080fd5b613c138482850161378e565b91505092915050565b600060208284031215613c2e57600080fd5b600082015167ffffffffffffffff811115613c4857600080fd5b613c54848285016137e2565b91505092915050565b600060208284031215613c6f57600080fd5b6000613c7d84828501613901565b91505092915050565b60008060408385031215613c9957600080fd5b6000613ca7858286016138ec565b9250506020613cb88582860161359b565b9150509250929050565b60008060008060808587031215613cd857600080fd5b6000613ce687828801613901565b9450506020613cf787828801613779565b9350506040613d0887828801613901565b9250506060613d1987828801613901565b91505092959194509250565b6000613d318383613d4c565b60208301905092915050565b613d46816144fc565b82525050565b613d5581614428565b82525050565b613d6481614428565b82525050565b6000613d75826143d2565b613d7f81856143f5565b9350613d8a836143c2565b8060005b83811015613dbb578151613da28882613d25565b9750613dad836143e8565b925050600181019050613d8e565b5085935050505092915050565b613dd18161444c565b82525050565b613de081614458565b82525050565b6000613df28385614406565b9350613dff8385846145d4565b613e0883614618565b840190509392505050565b6000613e1e826143dd565b613e288185614406565b9350613e388185602086016145e3565b613e4181614618565b840191505092915050565b613e558161450e565b82525050565b613e6481614532565b82525050565b613e7381614556565b82525050565b613e828161457a565b82525050565b613e91816144aa565b82525050565b613ea08161459e565b82525050565b6000613eb3601d83614417565b91507f41756374696f6e3a206f6e6c7920434641763120737570706f727465640000006000830152602082019050919050565b6000613ef3601b83614417565b91507f41756374696f6e3a206e6f7420616363657074656420746f6b656e00000000006000830152602082019050919050565b6000613f33601e83614417565b91507f41756374696f6e3a20737570706f7274206f6e6c79206f6e6520686f737400006000830152602082019050919050565b613f6f816144e5565b82525050565b6000602082019050613f8a6000830184613d5b565b92915050565b6000602082019050613fa56000830184613d3d565b92915050565b6000604082019050613fc06000830185613d3d565b613fcd6020830184613d5b565b9392505050565b6000606082019050613fe96000830186613d3d565b613ff66020830185613d5b565b6140036040830184613f66565b949350505050565b60006040820190506140206000830185613d3d565b61402d6020830184613f66565b9392505050565b60006040820190506140496000830185613d5b565b6140566020830184613f66565b9392505050565b60006060820190506140726000830186613d5b565b61407f6020830185613f66565b61408c6040830184613d5b565b949350505050565b60006080820190506140a96000830187613d5b565b6140b66020830186613f66565b6140c36040830185613d3d565b6140d06060830184613e97565b95945050505050565b600060208201905081810360008301526140f4818486613de6565b90509392505050565b600060208201905081810360008301526141178184613e13565b905092915050565b60006020820190506141346000830184613e4c565b92915050565b600060208201905061414f6000830184613e5b565b92915050565b600060208201905061416a6000830184613e6a565b92915050565b60006040820190506141856000830185613e6a565b6141926020830184613dd7565b9392505050565b60006020820190506141ae6000830184613e79565b92915050565b600060208201905081810360008301526141cd81613ea6565b9050919050565b600060208201905081810360008301526141ed81613ee6565b9050919050565b6000602082019050818103600083015261420d81613f26565b9050919050565b60006020820190506142296000830184613f66565b92915050565b600060a0820190506142446000830188613f66565b6142516020830187613e88565b61425e6040830186613f66565b61426b6060830185613f66565b6142786080830184613dc8565b9695505050505050565b60006040820190506142976000830185613f66565b6142a46020830184613f66565b9392505050565b600060a0820190506142c06000830188613f66565b6142cd6020830187613f66565b81810360408301526142df8186613d6a565b90506142ee6060830185613d5b565b6142fb6080830184613f66565b9695505050505050565b6000604051905081810181811067ffffffffffffffff8211171561432c5761432b614616565b5b8060405250919050565b600067ffffffffffffffff82111561435157614350614616565b5b602082029050602081019050919050565b600067ffffffffffffffff82111561437d5761437c614616565b5b601f19601f8301169050602081019050919050565b600067ffffffffffffffff8211156143ad576143ac614616565b5b601f19601f8301169050602081019050919050565b6000819050602082019050919050565b600081519050919050565b600081519050919050565b6000602082019050919050565b600082825260208201905092915050565b600082825260208201905092915050565b600082825260208201905092915050565b6000614433826144c5565b9050919050565b6000614445826144c5565b9050919050565b60008115159050919050565b6000819050919050565b60007fffffffff0000000000000000000000000000000000000000000000000000000082169050919050565b600061449982614428565b9050919050565b6000819050919050565b600081600b0b9050919050565b600061ffff82169050919050565b600073ffffffffffffffffffffffffffffffffffffffff82169050919050565b6000819050919050565b600060ff82169050919050565b6000614507826145b0565b9050919050565b600061451982614520565b9050919050565b600061452b826144c5565b9050919050565b600061453d82614544565b9050919050565b600061454f826144c5565b9050919050565b600061456182614568565b9050919050565b6000614573826144c5565b9050919050565b60006145858261458c565b9050919050565b6000614597826144c5565b9050919050565b60006145a9826144b7565b9050919050565b60006145bb826145c2565b9050919050565b60006145cd826144c5565b9050919050565b82818337600083830152505050565b60005b838110156146015780820151818401526020810190506145e6565b83811115614610576000848401525b50505050565bfe5b6000601f19601f8301169050919050565b61463281614428565b811461463d57600080fd5b50565b6146498161443a565b811461465457600080fd5b50565b6146608161444c565b811461466b57600080fd5b50565b61467781614458565b811461468257600080fd5b50565b61468e81614462565b811461469957600080fd5b50565b6146a58161448e565b81146146b057600080fd5b50565b6146bc816144a0565b81146146c757600080fd5b50565b6146d3816144aa565b81146146de57600080fd5b50565b6146ea816144e5565b81146146f557600080fd5b50565b614701816144ef565b811461470c57600080fd5b5056fe556e737570706f727465642063616c6c6261636b202d20204265666f72652041677265656d656e74205465726d696e61746564416464726573733a20696e73756666696369656e742062616c616e636520666f722063616c6c536166654d6174683a206d756c7469706c69636174696f6e206f766572666c6f77756e6465726c79696e67546f6b656e2062616c616e636520616674657220737761703a20556e737570706f727465642063616c6c6261636b202d204265666f72652041677265656d656e742075706461746564556e737570706f727465642063616c6c6261636b202d204265666f72652041677265656d656e7420437265617465645361666545524332303a204552433230206f7065726174696f6e20646964206e6f742073756363656564a2646970667358221220c75990f11a4142bb98702a48805e06e8f68c1e347941aa53f7a6625612323c3864736f6c63430007050033",
  "linkReferences": {},
  "deployedLinkReferences": {}
}