{
  "_format": "hh-sol-artifact-1",
  "contractName": "FlowRoller",
  "sourceName": "contracts/FlowRoller.sol",
  "abi": [
    {
      "inputs": [
        {
          "internalType": "contract ISuperfluid",
          "name": "host",
          "type": "address"
        },
        {
          "internalType": "contract IConstantFlowAgreementV1",
          "name": "cfa",
          "type": "address"
        },
        {
          "internalType": "contract ISuperToken",
          "name": "superToken",
          "type": "address"
        },
        {
          "internalType": "contract ILendingPoolAddressesProvider",
          "name": "aaveLendingPoolProvider",
          "type": "address"
        }
      ],
      "stateMutability": "nonpayable",
      "type": "constructor"
    },
    {
      "inputs": [],
      "name": "_cfa",
      "outputs": [
        {
          "internalType": "contract IConstantFlowAgreementV1",
          "name": "",
          "type": "address"
        }
      ],
      "stateMutability": "view",
      "type": "function"
    },
    {
      "inputs": [],
      "name": "_depositBalance",
      "outputs": [],
      "stateMutability": "nonpayable",
      "type": "function"
    },
    {
      "inputs": [],
      "name": "_superToken",
      "outputs": [
        {
          "internalType": "contract ISuperToken",
          "name": "",
          "type": "address"
        }
      ],
      "stateMutability": "view",
      "type": "function"
    },
    {
      "inputs": [
        {
          "internalType": "contract ISuperToken",
          "name": "superToken",
          "type": "address"
        },
        {
          "internalType": "address",
          "name": "agreementClass",
          "type": "address"
        },
        {
          "internalType": "bytes32",
          "name": "agreementId",
          "type": "bytes32"
        },
        {
          "internalType": "bytes",
          "name": "agreementData",
          "type": "bytes"
        },
        {
          "internalType": "bytes",
          "name": "",
          "type": "bytes"
        },
        {
          "internalType": "bytes",
          "name": "ctx",
          "type": "bytes"
        }
      ],
      "name": "afterAgreementCreated",
      "outputs": [
        {
          "internalType": "bytes",
          "name": "newCtx",
          "type": "bytes"
        }
      ],
      "stateMutability": "nonpayable",
      "type": "function"
    },
    {
      "inputs": [
        {
          "internalType": "contract ISuperToken",
          "name": "superToken",
          "type": "address"
        },
        {
          "internalType": "address",
          "name": "agreementClass",
          "type": "address"
        },
        {
          "internalType": "bytes32",
          "name": "agreementId",
          "type": "bytes32"
        },
        {
          "internalType": "bytes",
          "name": "agreementData",
          "type": "bytes"
        },
        {
          "internalType": "bytes",
          "name": "",
          "type": "bytes"
        },
        {
          "internalType": "bytes",
          "name": "ctx",
          "type": "bytes"
        }
      ],
      "name": "afterAgreementTerminated",
      "outputs": [
        {
          "internalType": "bytes",
          "name": "newCtx",
          "type": "bytes"
        }
      ],
      "stateMutability": "nonpayable",
      "type": "function"
    },
    {
      "inputs": [
        {
          "internalType": "contract ISuperToken",
          "name": "superToken",
          "type": "address"
        },
        {
          "internalType": "address",
          "name": "agreementClass",
          "type": "address"
        },
        {
          "internalType": "bytes32",
          "name": "agreementId",
          "type": "bytes32"
        },
        {
          "internalType": "bytes",
          "name": "agreementData",
          "type": "bytes"
        },
        {
          "internalType": "bytes",
          "name": "",
          "type": "bytes"
        },
        {
          "internalType": "bytes",
          "name": "ctx",
          "type": "bytes"
        }
      ],
      "name": "afterAgreementUpdated",
      "outputs": [
        {
          "internalType": "bytes",
          "name": "newCtx",
          "type": "bytes"
        }
      ],
      "stateMutability": "nonpayable",
      "type": "function"
    },
    {
      "inputs": [
        {
          "internalType": "contract ISuperToken",
          "name": "",
          "type": "address"
        },
        {
          "internalType": "address",
          "name": "",
          "type": "address"
        },
        {
          "internalType": "bytes32",
          "name": "",
          "type": "bytes32"
        },
        {
          "internalType": "bytes",
          "name": "",
          "type": "bytes"
        },
        {
          "internalType": "bytes",
          "name": "",
          "type": "bytes"
        }
      ],
      "name": "beforeAgreementCreated",
      "outputs": [
        {
          "internalType": "bytes",
          "name": "",
          "type": "bytes"
        }
      ],
      "stateMutability": "view",
      "type": "function"
    },
    {
      "inputs": [
        {
          "internalType": "contract ISuperToken",
          "name": "",
          "type": "address"
        },
        {
          "internalType": "address",
          "name": "",
          "type": "address"
        },
        {
          "internalType": "bytes32",
          "name": "",
          "type": "bytes32"
        },
        {
          "internalType": "bytes",
          "name": "",
          "type": "bytes"
        },
        {
          "internalType": "bytes",
          "name": "",
          "type": "bytes"
        }
      ],
      "name": "beforeAgreementTerminated",
      "outputs": [
        {
          "internalType": "bytes",
          "name": "",
          "type": "bytes"
        }
      ],
      "stateMutability": "view",
      "type": "function"
    },
    {
      "inputs": [
        {
          "internalType": "contract ISuperToken",
          "name": "",
          "type": "address"
        },
        {
          "internalType": "address",
          "name": "",
          "type": "address"
        },
        {
          "internalType": "bytes32",
          "name": "",
          "type": "bytes32"
        },
        {
          "internalType": "bytes",
          "name": "",
          "type": "bytes"
        },
        {
          "internalType": "bytes",
          "name": "",
          "type": "bytes"
        }
      ],
      "name": "beforeAgreementUpdated",
      "outputs": [
        {
          "internalType": "bytes",
          "name": "",
          "type": "bytes"
        }
      ],
      "stateMutability": "view",
      "type": "function"
    },
    {
      "inputs": [
        {
          "internalType": "address",
          "name": "",
          "type": "address"
        }
      ],
      "name": "savers",
      "outputs": [
        {
          "internalType": "uint256",
          "name": "timestamp",
          "type": "uint256"
        },
        {
          "internalType": "int96",
          "name": "flowRate",
          "type": "int96"
        },
        {
          "internalType": "uint256",
          "name": "prevAccumulatedBalance",
          "type": "uint256"
        },
        {
          "internalType": "bool",
          "name": "isTerminated",
          "type": "bool"
        }
      ],
      "stateMutability": "view",
      "type": "function"
    }
  ],
  "bytecode": "0x60c06040523480156200001157600080fd5b506040516200339e3803806200339e833981810160405281019062000037919062000406565b600073ffffffffffffffffffffffffffffffffffffffff168473ffffffffffffffffffffffffffffffffffffffff161415620000aa576040517f08c379a0000000000000000000000000000000000000000000000000000000008152600401620000a19062000617565b60405180910390fd5b600073ffffffffffffffffffffffffffffffffffffffff168373ffffffffffffffffffffffffffffffffffffffff1614156200011d576040517f08c379a00000000000000000000000000000000000000000000000000000000081526004016200011490620005b1565b60405180910390fd5b600073ffffffffffffffffffffffffffffffffffffffff168273ffffffffffffffffffffffffffffffffffffffff16141562000190576040517f08c379a00000000000000000000000000000000000000000000000000000000081526004016200018790620005f5565b60405180910390fd5b600073ffffffffffffffffffffffffffffffffffffffff168173ffffffffffffffffffffffffffffffffffffffff16141562000203576040517f08c379a0000000000000000000000000000000000000000000000000000000008152600401620001fa90620005d3565b60405180910390fd5b83600160006101000a81548173ffffffffffffffffffffffffffffffffffffffff021916908373ffffffffffffffffffffffffffffffffffffffff1602179055508273ffffffffffffffffffffffffffffffffffffffff1660808173ffffffffffffffffffffffffffffffffffffffff1660601b815250508173ffffffffffffffffffffffffffffffffffffffff1660a08173ffffffffffffffffffffffffffffffffffffffff1660601b8152505080600260006101000a81548173ffffffffffffffffffffffffffffffffffffffff021916908373ffffffffffffffffffffffffffffffffffffffff160217905550600064100000000064040000000064010000000060011717179050600160009054906101000a900473ffffffffffffffffffffffffffffffffffffffff1673ffffffffffffffffffffffffffffffffffffffff1663ad3915c8826040518263ffffffff1660e01b81526004016200036b919062000639565b600060405180830381600087803b1580156200038657600080fd5b505af11580156200039b573d6000803e3d6000fd5b5050505050505050506200075d565b600081519050620003bb81620006f5565b92915050565b600081519050620003d2816200070f565b92915050565b600081519050620003e98162000729565b92915050565b600081519050620004008162000743565b92915050565b600080600080608085870312156200041d57600080fd5b60006200042d87828801620003ef565b94505060206200044087828801620003aa565b93505060406200045387828801620003d8565b92505060606200046687828801620003c1565b91505092959194509250565b60006200048160158362000656565b91507f41756374696f6e3a2063666120697320656d70747900000000000000000000006000830152602082019050919050565b6000620004c360298362000656565b91507f41756374696f6e3a20616176654c656e64696e67506f6f6c50726f766964657260008301527f20697320656d70747900000000000000000000000000000000000000000000006020830152604082019050919050565b60006200052b601c8362000656565b91507f41756374696f6e3a207375706572546f6b656e20697320656d707479000000006000830152602082019050919050565b60006200056d60168362000656565b91507f41756374696f6e3a20686f737420697320656d707479000000000000000000006000830152602082019050919050565b620005ab81620006eb565b82525050565b60006020820190508181036000830152620005cc8162000472565b9050919050565b60006020820190508181036000830152620005ee81620004b4565b9050919050565b6000602082019050818103600083015262000610816200051c565b9050919050565b6000602082019050818103600083015262000632816200055e565b9050919050565b6000602082019050620006506000830184620005a0565b92915050565b600082825260208201905092915050565b60006200067482620006cb565b9050919050565b6000620006888262000667565b9050919050565b60006200069c8262000667565b9050919050565b6000620006b08262000667565b9050919050565b6000620006c48262000667565b9050919050565b600073ffffffffffffffffffffffffffffffffffffffff82169050919050565b6000819050919050565b62000700816200067b565b81146200070c57600080fd5b50565b6200071a816200068f565b81146200072657600080fd5b50565b6200073481620006a3565b81146200074057600080fd5b50565b6200074e81620006b7565b81146200075a57600080fd5b50565b60805160601c60a05160601c612bf4620007aa6000398061092b52806109ff5280610d415280610ee7528061118952806119ad52508061059a528061114d52806119715250612bf46000f3fe608060405234801561001057600080fd5b506004361061009e5760003560e01c80637cb4d6d7116100665780637cb4d6d714610196578063884d1f40146101b45780639a730aff146101e4578063c8b53aef146101ee578063d86ed3e51461020c5761009e565b8063230dbd29146100a357806330d9c915146100d357806353c11f99146101035780635c63cacb146101335780635f9e7d7714610166575b600080fd5b6100bd60048036038101906100b89190612298565b61023c565b6040516100ca919061269e565b60405180910390f35b6100ed60048036038101906100e891906121e8565b6103bc565b6040516100fa919061269e565b60405180910390f35b61011d60048036038101906101189190612298565b61040f565b60405161012a919061269e565b60405180910390f35b61014d60048036038101906101489190612108565b6104fb565b60405161015d949392919061279a565b60405180910390f35b610180600480360381019061017b91906121e8565b610545565b60405161018d919061269e565b60405180910390f35b61019e610598565b6040516101ab91906126c0565b60405180910390f35b6101ce60048036038101906101c991906121e8565b6105bc565b6040516101db919061269e565b60405180910390f35b6101ec61060f565b005b6101f6610d3f565b60405161020391906126db565b60405180910390f35b61022660048036038101906102219190612298565b610d63565b604051610233919061269e565b60405180910390f35b6060600160009054906101000a900473ffffffffffffffffffffffffffffffffffffffff1673ffffffffffffffffffffffffffffffffffffffff163373ffffffffffffffffffffffffffffffffffffffff16146102ce576040517f08c379a00000000000000000000000000000000000000000000000000000000081526004016102c59061275f565b60405180910390fd5b89896102d982610ee3565b610318576040517f08c379a000000000000000000000000000000000000000000000000000000000815260040161030f9061273f565b60405180910390fd5b61032181610f3b565b610360576040517f08c379a00000000000000000000000000000000000000000000000000000000081526004016103579061271f565b60405180910390fd5b61039e6040518060400160405280601c81526020017f616674657241677265656d656e74557064617465642063616c6c656400000000815250610fe4565b6103ab85858b8b8e6110e2565b925050509998505050505050505050565b60606040517f08c379a000000000000000000000000000000000000000000000000000000000815260040180806020018281038252602f815260200180612b90602f913960400191505060405180910390fd5b6060600160009054906101000a900473ffffffffffffffffffffffffffffffffffffffff1673ffffffffffffffffffffffffffffffffffffffff163373ffffffffffffffffffffffffffffffffffffffff16146104a1576040517f08c379a00000000000000000000000000000000000000000000000000000000081526004016104989061275f565b60405180910390fd5b6104df6040518060400160405280601f81526020017f616674657241677265656d656e745465726d696e617465642063616c6c656400815250610fe4565b6104ec838389898c6110e2565b90509998505050505050505050565b60006020528060005260406000206000915090508060000154908060010160009054906101000a9004600b0b908060020154908060030160009054906101000a900460ff16905084565b60606040517f08c379a0000000000000000000000000000000000000000000000000000000008152600401808060200182810382526033815260200180612b0d6033913960400191505060405180910390fd5b7f000000000000000000000000000000000000000000000000000000000000000081565b60606040517f08c379a000000000000000000000000000000000000000000000000000000000815260040180806020018281038252602f815260200180612b61602f913960400191505060405180910390fd5b60004290506106526040518060400160405280600c81526020017f6d73672e73656e6465723a200000000000000000000000000000000000000000815250610fe4565b61065b33611577565b60006106673383611626565b90506106a76040518060400160405280601581526020017f62616c616e63654174436865636b706f696e743a200000000000000000000000815250610fe4565b6106b081611751565b600081905060007fffffffffffffffffffffffffffffffffffffffffffffffffffffffffffffffff90506107186040518060400160405280600881526020017f616d6f756e743a20000000000000000000000000000000000000000000000000815250610fe4565b610721816117ea565b6000600260009054906101000a900473ffffffffffffffffffffffffffffffffffffffff16905060008173ffffffffffffffffffffffffffffffffffffffff16630261bf8b6040518163ffffffff1660e01b815260040160206040518083038186803b15801561079057600080fd5b505afa1580156107a4573d6000803e3d6000fd5b505050506040513d601f19601f820116820180604052508101906107c89190612131565b90507fffffffffffffffffffffffffffffffffffffffffffffffffffffffffffffffff83131561089857856000803373ffffffffffffffffffffffffffffffffffffffff1673ffffffffffffffffffffffffffffffffffffffff1681526020019081526020016000206000018190555061084b838661188390919063ffffffff16565b6000803373ffffffffffffffffffffffffffffffffffffffff1673ffffffffffffffffffffffffffffffffffffffff16815260200190815260200160002060020181905550829350610929565b856000803373ffffffffffffffffffffffffffffffffffffffff1673ffffffffffffffffffffffffffffffffffffffff1681526020019081526020016000206000018190555060008060003373ffffffffffffffffffffffffffffffffffffffff1673ffffffffffffffffffffffffffffffffffffffff168152602001908152602001600020600201819055508493505b7f000000000000000000000000000000000000000000000000000000000000000073ffffffffffffffffffffffffffffffffffffffff166311bcc81e856040518263ffffffff1660e01b8152600401610982919061277f565b600060405180830381600087803b15801561099c57600080fd5b505af11580156109b0573d6000803e3d6000fd5b505050506109f26040518060400160405280601181526020017f616d6f756e74546f4465706f7369743a20000000000000000000000000000000815250610fe4565b6109fb84611751565b60007f000000000000000000000000000000000000000000000000000000000000000073ffffffffffffffffffffffffffffffffffffffff1663ee719bc86040518163ffffffff1660e01b815260040160206040518083038186803b158015610a6357600080fd5b505afa158015610a77573d6000803e3d6000fd5b505050506040513d601f19601f82011682018060405250810190610a9b9190612131565b9050610adb6040518060400160405280601181526020017f756e6465726c79696e67546f6b656e3a20000000000000000000000000000000815250610fe4565b610ae481611577565b60008173ffffffffffffffffffffffffffffffffffffffff166370a08231306040518263ffffffff1660e01b8152600401610b1f91906125f1565b60206040518083038186803b158015610b3757600080fd5b505afa158015610b4b573d6000803e3d6000fd5b505050506040513d601f19601f82011682018060405250810190610b6f91906123b8565b9050610baf6040518060400160405280601981526020017f756e6465726c79696e67546f6b656e2062616c616e63653a2000000000000000815250610fe4565b610bb881611751565b8173ffffffffffffffffffffffffffffffffffffffff1663095ea7b38573ffffffffffffffffffffffffffffffffffffffff16630261bf8b6040518163ffffffff1660e01b815260040160206040518083038186803b158015610c1a57600080fd5b505afa158015610c2e573d6000803e3d6000fd5b505050506040513d601f19601f82011682018060405250810190610c529190612131565b886040518363ffffffff1660e01b8152600401610c7092919061260c565b602060405180830381600087803b158015610c8a57600080fd5b505af1158015610c9e573d6000803e3d6000fd5b505050506040513d601f19601f82011682018060405250810190610cc29190612196565b508273ffffffffffffffffffffffffffffffffffffffff1663e8eda9df83883360006040518563ffffffff1660e01b8152600401610d039493929190612635565b600060405180830381600087803b158015610d1d57600080fd5b505af1158015610d31573d6000803e3d6000fd5b505050505050505050505050565b7f000000000000000000000000000000000000000000000000000000000000000081565b6060600160009054906101000a900473ffffffffffffffffffffffffffffffffffffffff1673ffffffffffffffffffffffffffffffffffffffff163373ffffffffffffffffffffffffffffffffffffffff1614610df5576040517f08c379a0000000000000000000000000000000000000000000000000000000008152600401610dec9061275f565b60405180910390fd5b8989610e0082610ee3565b610e3f576040517f08c379a0000000000000000000000000000000000000000000000000000000008152600401610e369061273f565b60405180910390fd5b610e4881610f3b565b610e87576040517f08c379a0000000000000000000000000000000000000000000000000000000008152600401610e7e9061271f565b60405180910390fd5b610ec56040518060400160405280601c81526020017f616674657241677265656d656e74437265617465642063616c6c656400000000815250610fe4565b610ed285858b8b8e611906565b925050509998505050505050505050565b60007f000000000000000000000000000000000000000000000000000000000000000073ffffffffffffffffffffffffffffffffffffffff168273ffffffffffffffffffffffffffffffffffffffff16149050919050565b60007fa9214cc96615e0085d3bb077758db69497dc2dce3b2b1e97bc93c3d18d83efd38273ffffffffffffffffffffffffffffffffffffffff16637730599e6040518163ffffffff1660e01b815260040160206040518083038186803b158015610fa457600080fd5b505afa158015610fb8573d6000803e3d6000fd5b505050506040513d601f19601f82011682018060405250810190610fdc91906121bf565b149050919050565b6110df816040516024018080602001828103825283818151815260200191508051906020019080838360005b8381101561102b578082015181840152602081019050611010565b50505050905090810190601f1680156110585780820380516001836020036101000a031916815260200191505b50925050506040516020818303038152906040527f41304fac000000000000000000000000000000000000000000000000000000007bffffffffffffffffffffffffffffffffffffffffffffffffffffffff19166020820180517bffffffffffffffffffffffffffffffffffffffffffffffffffffffff8381831617835250505050611bf0565b50565b606085858080601f016020809104026020016040519081016040528093929190818152602001838380828437600081840152601f19601f82011690508083019250505050505050905061113482611c19565b60008484810190611145919061215a565b5090506000807f000000000000000000000000000000000000000000000000000000000000000073ffffffffffffffffffffffffffffffffffffffff1663aabd26687f0000000000000000000000000000000000000000000000000000000000000000876040518363ffffffff1660e01b81526004016111c69291906126f6565b60806040518083038186803b1580156111de57600080fd5b505afa1580156111f2573d6000803e3d6000fd5b505050506040513d601f19601f8201168201806040525081019061121691906123e1565b505091509150600081600b0b1415611385576112666040518060400160405280601081526020017f64656c6574696e6720666c6f772e2e2e00000000000000000000000000000000815250610fe4565b60016000808573ffffffffffffffffffffffffffffffffffffffff1673ffffffffffffffffffffffffffffffffffffffff16815260200190815260200160002060030160006101000a81548160ff0219169083151502179055506112c8611dc0565b600160009054906101000a900473ffffffffffffffffffffffffffffffffffffffff1673ffffffffffffffffffffffffffffffffffffffff16633f6c923a8b8b6040518363ffffffff1660e01b815260040161132592919061267a565b60006040518083038186803b15801561133d57600080fd5b505afa158015611351573d6000803e3d6000fd5b505050506040513d6000823e3d601f19601f8201168201806040525081019061137a9190612377565b905080604001519250505b6113c36040518060400160405280601081526020017f7570646174656454696d657374616d7000000000000000000000000000000000815250610fe4565b6113cc82611751565b61140a6040518060400160405280600f81526020017f75706461746564466c6f77526174650000000000000000000000000000000000815250610fe4565b61141681600b0b6117ea565b60006114228484611626565b90506114626040518060400160405280601681526020017f70726576416363756d756c6174656442616c616e636500000000000000000000815250610fe4565b61146b81611751565b806000808673ffffffffffffffffffffffffffffffffffffffff1673ffffffffffffffffffffffffffffffffffffffff16815260200190815260200160002060020181905550826000808673ffffffffffffffffffffffffffffffffffffffff1673ffffffffffffffffffffffffffffffffffffffff16815260200190815260200160002060000181905550816000808673ffffffffffffffffffffffffffffffffffffffff1673ffffffffffffffffffffffffffffffffffffffff16815260200190815260200160002060010160006101000a8154816bffffffffffffffffffffffff0219169083600b0b6bffffffffffffffffffffffff1602179055505050505095945050505050565b61162381604051602401808273ffffffffffffffffffffffffffffffffffffffff1681526020019150506040516020818303038152906040527f2c2ecbc2000000000000000000000000000000000000000000000000000000007bffffffffffffffffffffffffffffffffffffffffffffffffffffffff19166020820180517bffffffffffffffffffffffffffffffffffffffffffffffffffffffff8381831617835250505050611bf0565b50565b6000806000808573ffffffffffffffffffffffffffffffffffffffff1673ffffffffffffffffffffffffffffffffffffffff16815260200190815260200160002060010160009054906101000a9004600b0b905060008060008673ffffffffffffffffffffffffffffffffffffffff1673ffffffffffffffffffffffffffffffffffffffff16815260200190815260200160002060000154905060006116d5828661188390919063ffffffff16565b905060006117426116f285600b0b84611cb290919063ffffffff16565b6000808a73ffffffffffffffffffffffffffffffffffffffff1673ffffffffffffffffffffffffffffffffffffffff16815260200190815260200160002060020154611d3890919063ffffffff16565b90508094505050505092915050565b6117e781604051602401808281526020019150506040516020818303038152906040527ff5b1bba9000000000000000000000000000000000000000000000000000000007bffffffffffffffffffffffffffffffffffffffffffffffffffffffff19166020820180517bffffffffffffffffffffffffffffffffffffffffffffffffffffffff8381831617835250505050611bf0565b50565b61188081604051602401808281526020019150506040516020818303038152906040527f4e0c1d1d000000000000000000000000000000000000000000000000000000007bffffffffffffffffffffffffffffffffffffffffffffffffffffffff19166020820180517bffffffffffffffffffffffffffffffffffffffffffffffffffffffff8381831617835250505050611bf0565b50565b6000828211156118fb576040517f08c379a000000000000000000000000000000000000000000000000000000000815260040180806020018281038252601e8152602001807f536166654d6174683a207375627472616374696f6e206f766572666c6f77000081525060200191505060405180910390fd5b818303905092915050565b606085858080601f016020809104026020016040519081016040528093929190818152602001838380828437600081840152601f19601f82011690508083019250505050505050905061195882611c19565b60008484810190611969919061215a565b5090506000807f000000000000000000000000000000000000000000000000000000000000000073ffffffffffffffffffffffffffffffffffffffff1663aabd26687f0000000000000000000000000000000000000000000000000000000000000000876040518363ffffffff1660e01b81526004016119ea9291906126f6565b60806040518083038186803b158015611a0257600080fd5b505afa158015611a16573d6000803e3d6000fd5b505050506040513d601f19601f82011682018060405250810190611a3a91906123e1565b505091509150611a7e6040518060400160405280601081526020017f7570646174656454696d657374616d7000000000000000000000000000000000815250610fe4565b611a8782611751565b611ac56040518060400160405280600f81526020017f75706461746564466c6f77526174650000000000000000000000000000000000815250610fe4565b611ad181600b0b6117ea565b816000808573ffffffffffffffffffffffffffffffffffffffff1673ffffffffffffffffffffffffffffffffffffffff16815260200190815260200160002060000181905550806000808573ffffffffffffffffffffffffffffffffffffffff1673ffffffffffffffffffffffffffffffffffffffff16815260200190815260200160002060010160006101000a8154816bffffffffffffffffffffffff0219169083600b0b6bffffffffffffffffffffffff16021790555060008060008573ffffffffffffffffffffffffffffffffffffffff1673ffffffffffffffffffffffffffffffffffffffff16815260200190815260200160002060030160006101000a81548160ff02191690831515021790555050505095945050505050565b60008151905060006a636f6e736f6c652e6c6f679050602083016000808483855afa5050505050565b611caf81604051602401808281526020019150506040516020818303038152906040527f27b7cf85000000000000000000000000000000000000000000000000000000007bffffffffffffffffffffffffffffffffffffffffffffffffffffffff19166020820180517bffffffffffffffffffffffffffffffffffffffffffffffffffffffff8381831617835250505050611bf0565b50565b600080831415611cc55760009050611d32565b6000828402905082848281611cd657fe5b0414611d2d576040517f08c379a0000000000000000000000000000000000000000000000000000000008152600401808060200182810382526021815260200180612b406021913960400191505060405180910390fd5b809150505b92915050565b600080828401905083811015611db6576040517f08c379a000000000000000000000000000000000000000000000000000000000815260040180806020018281038252601b8152602001807f536166654d6174683a206164646974696f6e206f766572666c6f77000000000081525060200191505060405180910390fd5b8091505092915050565b604051806101400160405280600060ff168152602001600060ff16815260200160008152602001600073ffffffffffffffffffffffffffffffffffffffff16815260200160007bffffffffffffffffffffffffffffffffffffffffffffffffffffffff1916815260200160608152602001600081526020016000815260200160008152602001600073ffffffffffffffffffffffffffffffffffffffff1681525090565b600081359050611e7381612a26565b92915050565b600081519050611e8881612a26565b92915050565b600081359050611e9d81612a3d565b92915050565b600081519050611eb281612a54565b92915050565b600081359050611ec781612a6b565b92915050565b600081519050611edc81612a6b565b92915050565b600081519050611ef181612a82565b92915050565b60008083601f840112611f0957600080fd5b8235905067ffffffffffffffff811115611f2257600080fd5b602083019150836001820283011115611f3a57600080fd5b9250929050565b600082601f830112611f5257600080fd5b8151611f65611f6082612810565b6127df565b91508082526020830160208301858383011115611f8157600080fd5b611f8c8382846129e0565b50505092915050565b600081359050611fa481612a99565b92915050565b600081519050611fb981612ab0565b92915050565b600081519050611fce81612ac7565b92915050565b60006101408284031215611fe757600080fd5b611ff26101406127df565b90506000612002848285016120f3565b6000830152506020612016848285016120f3565b602083015250604061202a848285016120de565b604083015250606061203e84828501611e79565b606083015250608061205284828501611ee2565b60808301525060a082015167ffffffffffffffff81111561207257600080fd5b61207e84828501611f41565b60a08301525060c0612092848285016120de565b60c08301525060e06120a6848285016120de565b60e0830152506101006120bb84828501611faa565b610100830152506101206120d184828501611e79565b6101208301525092915050565b6000815190506120ed81612ade565b92915050565b60008151905061210281612af5565b92915050565b60006020828403121561211a57600080fd5b600061212884828501611e64565b91505092915050565b60006020828403121561214357600080fd5b600061215184828501611e79565b91505092915050565b6000806040838503121561216d57600080fd5b600061217b85828601611e8e565b925050602061218c85828601611e8e565b9150509250929050565b6000602082840312156121a857600080fd5b60006121b684828501611ea3565b91505092915050565b6000602082840312156121d157600080fd5b60006121df84828501611ecd565b91505092915050565b600080600080600080600060a0888a03121561220357600080fd5b60006122118a828b01611f95565b97505060206122228a828b01611e64565b96505060406122338a828b01611eb8565b955050606088013567ffffffffffffffff81111561225057600080fd5b61225c8a828b01611ef7565b9450945050608088013567ffffffffffffffff81111561227b57600080fd5b6122878a828b01611ef7565b925092505092959891949750929550565b600080600080600080600080600060c08a8c0312156122b657600080fd5b60006122c48c828d01611f95565b99505060206122d58c828d01611e64565b98505060406122e68c828d01611eb8565b97505060608a013567ffffffffffffffff81111561230357600080fd5b61230f8c828d01611ef7565b965096505060808a013567ffffffffffffffff81111561232e57600080fd5b61233a8c828d01611ef7565b945094505060a08a013567ffffffffffffffff81111561235957600080fd5b6123658c828d01611ef7565b92509250509295985092959850929598565b60006020828403121561238957600080fd5b600082015167ffffffffffffffff8111156123a357600080fd5b6123af84828501611fd4565b91505092915050565b6000602082840312156123ca57600080fd5b60006123d8848285016120de565b91505092915050565b600080600080608085870312156123f757600080fd5b6000612405878288016120de565b945050602061241687828801611fbf565b9350506040612427878288016120de565b9250506060612438878288016120de565b91505092959194509250565b61244d81612941565b82525050565b61245c8161286d565b82525050565b61246b81612891565b82525050565b61247a8161289d565b82525050565b600061248c838561284b565b93506124998385846129d1565b6124a283612a15565b840190509392505050565b60006124b882612840565b6124c2818561284b565b93506124d28185602086016129e0565b6124db81612a15565b840191505092915050565b6124ef81612953565b82525050565b6124fe81612977565b82525050565b61250d816128ef565b82525050565b61251c8161299b565b82525050565b600061252f601d8361285c565b91507f41756374696f6e3a206f6e6c7920434641763120737570706f727465640000006000830152602082019050919050565b600061256f601b8361285c565b91507f41756374696f6e3a206e6f7420616363657074656420746f6b656e00000000006000830152602082019050919050565b60006125af601e8361285c565b91507f41756374696f6e3a20737570706f7274206f6e6c79206f6e6520686f737400006000830152602082019050919050565b6125eb8161292a565b82525050565b60006020820190506126066000830184612453565b92915050565b60006040820190506126216000830185612453565b61262e60208301846125e2565b9392505050565b600060808201905061264a6000830187612453565b61265760208301866125e2565b6126646040830185612444565b6126716060830184612513565b95945050505050565b60006020820190508181036000830152612695818486612480565b90509392505050565b600060208201905081810360008301526126b881846124ad565b905092915050565b60006020820190506126d560008301846124e6565b92915050565b60006020820190506126f060008301846124f5565b92915050565b600060408201905061270b60008301856124f5565b6127186020830184612471565b9392505050565b6000602082019050818103600083015261273881612522565b9050919050565b6000602082019050818103600083015261275881612562565b9050919050565b60006020820190508181036000830152612778816125a2565b9050919050565b600060208201905061279460008301846125e2565b92915050565b60006080820190506127af60008301876125e2565b6127bc6020830186612504565b6127c960408301856125e2565b6127d66060830184612462565b95945050505050565b6000604051905081810181811067ffffffffffffffff8211171561280657612805612a13565b5b8060405250919050565b600067ffffffffffffffff82111561282b5761282a612a13565b5b601f19601f8301169050602081019050919050565b600081519050919050565b600082825260208201905092915050565b600082825260208201905092915050565b60006128788261290a565b9050919050565b600061288a8261290a565b9050919050565b60008115159050919050565b6000819050919050565b60007fffffffff0000000000000000000000000000000000000000000000000000000082169050919050565b60006128de8261286d565b9050919050565b6000819050919050565b600081600b0b9050919050565b600061ffff82169050919050565b600073ffffffffffffffffffffffffffffffffffffffff82169050919050565b6000819050919050565b600060ff82169050919050565b600061294c826129ad565b9050919050565b600061295e82612965565b9050919050565b60006129708261290a565b9050919050565b600061298282612989565b9050919050565b60006129948261290a565b9050919050565b60006129a6826128fc565b9050919050565b60006129b8826129bf565b9050919050565b60006129ca8261290a565b9050919050565b82818337600083830152505050565b60005b838110156129fe5780820151818401526020810190506129e3565b83811115612a0d576000848401525b50505050565bfe5b6000601f19601f8301169050919050565b612a2f8161286d565b8114612a3a57600080fd5b50565b612a468161287f565b8114612a5157600080fd5b50565b612a5d81612891565b8114612a6857600080fd5b50565b612a748161289d565b8114612a7f57600080fd5b50565b612a8b816128a7565b8114612a9657600080fd5b50565b612aa2816128d3565b8114612aad57600080fd5b50565b612ab9816128e5565b8114612ac457600080fd5b50565b612ad0816128ef565b8114612adb57600080fd5b50565b612ae78161292a565b8114612af257600080fd5b50565b612afe81612934565b8114612b0957600080fd5b5056fe556e737570706f727465642063616c6c6261636b202d20204265666f72652041677265656d656e74205465726d696e61746564536166654d6174683a206d756c7469706c69636174696f6e206f766572666c6f77556e737570706f727465642063616c6c6261636b202d204265666f72652041677265656d656e742075706461746564556e737570706f727465642063616c6c6261636b202d204265666f72652041677265656d656e742043726561746564a26469706673582212205667c34b483456f390511a78adbbe51d633bfcf0c2073db5a9beb406c76840d964736f6c63430007050033",
  "linkReferences": {},
  "deployedLinkReferences": {}
}